:100000000C9433010C9453010C9453010C94530140
:100010000C9453010C9453010C9453010C94530110
:100020000C9453010C9405030C9453010C9453014C
:100030000C9453010C9453010C9453010C945301F0
:100040000C9453010C9453010C9453010C945301E0
:100050000C9453010C9453010C9453010C945301D0
:100060000C9453010C9453010C9453010C945301C0
:100070000C9453010C94C7010C9453010C9453013C
:100080000C9453010C9453010C9453010C945301A0
:100090000C948B010C94AA010C9453010C94530101
:1000A0000C9453010C9453010C9453010C94530180
:1000B0000C9453010C9453010C9453010C9455016E
:1000C0000C9453010C9453010C9453010C94530160
:1000D0000C9453010C9453010C9453010C94530150
:1000E0000C945301BC04C004C404C804CC04B80478
:1000F000A304E40CE60CE60CEC0CDE0CD80CDE0CD5
:10010000D80CEE0C084AD73B3BCE016E84BCBFFD39
:10011000C12F3D6C74319ABD56833DDA3D00C77FD7
:1001200011BED9E4BB4C3E916BAAAABE0000008070
:100130003F00426F6F74656400556E61626C6520AC
:10014000746F206C6F63617465207365676D656E95
:100150007420666F72206C6F6F6B616865616420DC
:10016000706F696E7400456E64206F6620706174F4
:1001700068207265616368656400556E61626C65D4
:1001800020746F206C6F63617465207365676D65A3
:100190006E7420666F72206F7274686F676F6E6125
:1001A0006C2070726F6A656374696F6E00466F6C65
:1001B0006C6F77657220706172616D6574657273C2
:1001C0002073657400466F6C6C6F77657220726582
:1001D00073657400466F6C6C6F7765722070617523
:1001E00073656400466F6C6C6F7765722073746121
:1001F00072746564004E6F2070617468206176616E
:10020000696C61626C650050617468206F662025BE
:100210007520706F696E74732C20312E2825692C1F
:1002200025692920322E2825692C256929202E2E82
:100230002E00466F6C6C6F7765723A206F75742074
:100240006F66206D656D6F7279206F7220706174BA
:10025000682068617320746F6F2066657720706F07
:10026000696E7473000011241FBECFEFD1E2DEBFB0
:10027000CDBF1EBA12E0A0E0B2E0EEE4F9E400E087
:100280000BBF02C007900D92A436B107D9F729E041
:10029000A4E6B2E001C01D92AF3CB207E1F70E94B4
:1002A0001F050C94A5240C94F30C2F922FB6CF931A
:1002B000DF93EF93FF93FF27C0918902D0918A02C9
:1002C0002196C0938902D0938A02C0918B02D0916B
:1002D0008C02CF1FDF1FC0938B02D0938C02F0994A
:1002E00004C0F09AE9E2F2E003C0F098E7E2F2E03D
:1002F000C081D1812296D183C083C0FD05C0F29B0D
:1003000003C0EFECE0937A00FF91EF91DF91CF9182
:100310002FBE2F9018952F922FB62F93EF93FF9308
:100320002091CE00E0918D02E395EF77F0918E025F
:10033000FE1761F0E0938D02F0E0EF58F84F208354
:10034000FF91EF912F912FBE2F90189521E02093D0
:100350009102F6CF2F922FB6EF93FF93F0918F0279
:10036000E0919002FE1779F0E395EF7FE093900221
:10037000F0E0EF50F84FE081E093CE00FF91EF9175
:100380002FBE2F901895E8E9E093C900F7CF2F9280
:100390002FB67F938F939F93CF93DF93EF93FF932A
:1003A000C091F108D091F208FE01E85BFF4F89E0AF
:1003B000EB3CF807B1F1818180937C0082818093CE
:1003C0007B00F093F208E093F108E881E395EF7188
:1003D000E883FF27EE0FFF1FEC0FFD1F7085909144
:1003E00078009087791B8185909179009187890B9E
:1003F000982F990F990BEC81E71BEC83ED81E80BAB
:10040000ED83EE81E90BEE83EB81EF77EB83FF91D8
:10041000EF91DF91CF919F918F917F912FBE2F9080
:100420001895E3EFF8E0C7CFEAE0F1E08081887F3C
:100430008083EBE0F1E08081876080838091090117
:100440008770809366020895809166020895809176
:1004500064020895CF9380910901C82FC7709091CD
:100460006602C917E9F080FD0AC02091640230914C
:1004700065022F5F3F4F309365022093640281FD38
:100480000AC020916402309165022F5F3F4F309384
:1004900065022093640282FF07C089E00E94940CE9
:1004A000C0936602CF910895809164029091650295
:1004B00001969093650280936402EFCFCF92DF9212
:1004C000EF92FF920E94970C833009F477C00E944C
:1004D000B606FC01828181114BC00E945B07FC01C2
:1004E000C480D580E680F7800E94700CFC012481D6
:1004F000358146815781C701B6010E94F41B6B010B
:100500007C010E94B606FC018281813009F441C061
:100510000E94B606FC0182818330D9F120E030E0F0
:10052000A901C701B6010E94D31C87FF04C0F7FAD6
:10053000F094F7F8F09420911B0230911C02409146
:100540001D0250911E02C701B6010E94D81C23E370
:1005500033E343E150E40E946E1F0E944A1D7093F2
:10056000070260930602FF90EF90DF90CF9008950E
:100570000E94B606FC018281823009F4AECFC12C04
:10058000D12C76010E94B606FC018281813009F0EF
:10059000BFCF0E945B07FC01C080D180E280F38066
:1005A0000E94700CFC012081318142815381C7017E
:1005B000B6010E94F41B6B017C01B0CF8DECC82EFC
:1005C0008CE4D82E8DE7E82E83E4F82EB4CFEAE051
:1005D000F1E08081807F8083E8E6F0E080818160C7
:1005E0008083EBE6F0E080818F60808383B18F7041
:1005F00080936B020895809167029091680208953C
:100600008091690290916A0208951F920F920FB62D
:100610000F9211240BB60F922F933F934F935F933A
:100620006F937F938F939F93AF93BF93CF93DF93FA
:10063000EF93FF93C3B1DC2FDF7080916B028D27A6
:1006400080FF7BC02091690230916A02C0FFEAC03E
:10065000C1FF00C12150310930936A022093690221
:1006600081FD09C182FF74C0209167023091680248
:10067000C2FFCDC0C3FFCDC02F5F3F4F3093680294
:100680002093670283FF06C021503109309368022E
:10069000209367020E94970C833009F46EC00E9479
:1006A000970C853061F00E94970C863041F00E94D3
:1006B000970C873021F00E94970C883039F5809193
:1006C000060290910702863F2FEF920709F4F7C0C8
:1006D00020916B022D2720FF05C001979093070200
:1006E0008093060221FF05C0019790930702809333
:1006F000060222FF05C0019790930702809306022D
:1007000023FD6DC0181619060CF072C0D0936B0251
:10071000FF91EF91DF91CF91BF91AF919F918F9119
:100720007F916F915F914F913F912F910F900BBEF1
:100730000F900FBE0F901F90189581FF93CF2091BF
:10074000690230916A02C1FD9DC0C0FD75C093C0B1
:1007500083FFA0CF2091670230916802C3FF95C04C
:10076000C2FD92CF2F5F3F4F309368022093670204
:100770000E94970C833009F092CF209106023091AD
:100780000702263F8FEF380709F4A6C080916B025D
:100790008D2780FF58C0C0FF86C0C1FD86C0215094
:1007A0003109309307022093060282FF81C0C2FF05
:1007B00075C0C3FF75C021503109309307022093E3
:1007C0000602121613060CF46ACF86EF9FEF909381
:1007D00007028093060288E00E94940C60CF019784
:1007E0009093070280930602181619060CF48ECF18
:1007F00086EF9FEF90930702809306020E94970C6A
:10080000883009F470C088E00E94940C7FCFC3FF49
:1008100033CF21503109309368022093670283FF60
:1008200039CFA0CFC1FF1FC02F5F3F4F30936A0267
:100830002093690281FF16CF2150310930936A025B
:10084000209369020FCF81FFB0CFC1FF3FC0C0FF2F
:10085000ACCFA5CF2F5F3F4F30936A022093690240
:1008600081FF00CFE9CF2150310930936A022093F4
:10087000690281FFF7CE2F5F3F4F30936A022093CA
:100880006902F0CEC0FDF7CFD7CFC2FFFDCE2F5FFC
:100890003F4F30936802209367026ACFC3FF8BCF2C
:1008A00083FD89CF8ECFC1FD7ACF81FD78CF7DCFFB
:1008B00083FF87CFC3FF0DC0C2FD83CF7CCF0E94D3
:1008C0005E02809106029091070202CFC0FD6DCFBB
:1008D00066CFC2FF76CF6FCF0E945E0220910602E4
:1008E0003091070253CF89E00E94940C0FCF8CE621
:1008F00092E008950C945D0C0C946B0C8F929F9277
:10090000AF92BF92CF92DF92EF92FF920F931F931D
:10091000CF93DF93CDB7DEB761970FB6F894DEBF04
:100920000FBECDBF8C01CE0109960E942D0DD801BE
:10093000EC918E2F90E08730910538F4FC01EE5851
:10094000FF4F0C942C200E94890861960FB6F894F2
:10095000DEBF0FBECDBFDF91CF911F910F91FF90F2
:10096000EF90DF90CF90BF90AF909F908F900895C1
:1009700083E00E94940CE9CF89E00E94940CE5CFBB
:1009800087E00E94940CE1CF85E00E94940CDDCFBB
:1009900086E00E94940CD9CF0E94700C8C01CE018D
:1009A0000196998B888B82E08F87F8016081718135
:1009B000828193810E944A1D4B015C017A83698385
:1009C000D8011496CD90DD90ED90FC9017972DEC0A
:1009D0003CE44DEF52E4C701B6010E94F41B0E94B3
:1009E0004A1D7C836B839E828D822DEC3CE44DE717
:1009F00053E4C701B6010E94F51B2DEC3CE44DEF1A
:100A000052E40E94F51B0E944A1D78876F83CE0135
:100A10000F960E94131281E00E94191296CF7F93C5
:100A20006F9382E392E09F938F9383E08F930E9472
:100A300005100F900F900F900F900F900895CF9387
:100A4000DF93CDB7DEB766970FB6F894DEBF0FBE63
:100A5000CDBF8FEE809364008FE38093650081B1FA
:100A6000806C81B90E94370E0E94820F6FE075E0A2
:100A700080E00E948A0F6EE774E086E00E948A0F91
:100A80006AE774E082E00E948A0F6CE774E085E018
:100A90000E948A0F0E94700D0E940B0D81E00E943F
:100AA0004A0E0E9409120E9414020E94E7020E944C
:100AB000E207789482E391E09F938F9382E08F9393
:100AC0000E943F100F900F900F9010E423C0F099F8
:100AD00005C0809127029091280204C080912902CC
:100AE00090912A022091720230917302AC01421B54
:100AF000530B483C510560F090937302809372024F
:100B00000E94F11B40E150E0BC0184E00E94930F81
:100B10000E9479100E942A020E94CA0CF09905C016
:100B2000809127029091280204C08091290290911F
:100B30002A0220917E0230917F02AC01421B530BAE
:100B40009A01243F314038F090937F0280937E02D7
:100B500082B1812782B9F09905C0809127029091D6
:100B6000280204C08091290290912A0220917C02DF
:100B700030917D02FC01E21BF30B9F012C323140CE
:100B800008F443C090937D0280937C020E9424026B
:100B900089830E9427028A830E9400039C838B839F
:100BA0000E94FB029E838D8380E00E94AB0E98879B
:100BB0008F8381E00E94AB0E9A87898782E00E9432
:100BC000AB0E9C878B871E861D86188A1F860E9407
:100BD000700CFC0160857185828593850E944A1D99
:100BE0007A8B698B0E945B07FC0180859185A285C9
:100BF000B3858B8B9C8BAD8BBE8B46E150E0BE01E9
:100C00006F5F7F4F81E00E94930FF09905C0809144
:100C100027029091280204C08091290290912A0213
:100C200020917A0230917B02AC01421B530B463972
:100C3000510580F090937B0280937A020E94660CAB
:100C40000E94730C0E94700C4CE050E0BC0182E0EA
:100C50000E94930FF09905C080912702909128027D
:100C600004C08091290290912A022091780230914B
:100C70007902FC01E21BF30BE639F10568F0909371
:100C8000790280937802198241E050E0BE016F5FE3
:100C90007F4F85E00E94930FF09905C08091270255
:100CA0009091280204C08091290290912A022091FB
:100CB000760230917702AC01421B530B4639510545
:100CC000D0F090937702809376020E94660C9A830C
:100CD00089830E94B6067C0189819A810E94B906A7
:100CE000C7010E945E0742E050E0BE016F5F7F4F88
:100CF00082E00E94930FF09905C0809127029091A5
:100D0000280204C08091290290912A022091740245
:100D100030917502FC01E21BF30B749708F4D7CEF7
:100D200090937502809374020E94A51A7C01FC01C5
:100D30008081882309F4CBCE0E94700C6C010E9444
:100D40003F12882369F0B701675F7F4FC6010E9499
:100D5000B50B41E150E0B70183E00E94930FB7CE9D
:100D60000E94F40D83E00E941912F3CF84E192E017
:100D70000895CF92DF92EF92FF920E94700C20E0D4
:100D800030E04AEF52E4FC016081718182819381FD
:100D90000E94F51B2DEC3CE44DE753E40E94D81C67
:100DA0000E94BD1D0E94511D70E080E090E00E94F5
:100DB000821D20E030E040E450E40E94F51B0E94D8
:100DC000511D609314020E94700C20E030E04AEF45
:100DD00052E4FC0164817581868197810E94F51B34
:100DE0002DEC3CE44DE753E40E94D81C0E94BD1D4D
:100DF0000E94511D70E080E090E00E94821D20E082
:100E000030E040E450E40E94F51B0E94511D6093C5
:100E100015020E94700C2BED3FE049E45FE3FC01FA
:100E200060857185828593850E94F51B6B017C012D
:100E30002BED3FE049EC50E40E94BA1E87FD0AC04A
:100E40002BED3FE049EC50E4C701B6010E94F41BD2
:100E50006B017C012BED3FE049EC5FE3C701B6017C
:100E60000E94D81C0E94BD1D9B01AC0160E070E097
:100E700080EA90E40E94F41B6B017C0120E030E0EA
:100E800040E850E40E94BA1E87FD0AC020E030E02E
:100E900040E850E4C701B6010E94F41B6B017C01DD
:100EA000C701B6010E94511D60931602FF90EF909A
:100EB000DF90CF90089588E092E00895CF93DF937C
:100EC000EC01688170E080E090E00E94801D20E0ED
:100ED00030E040E450E40E94F41B2DEC3CE44DE78C
:100EE00053E40E946E1F20E030E04AEF52E40E947B
:100EF000F41B609308027093090280930A02909396
:100F00000B02698170E080E090E00E94801D20E08B
:100F100030E040E450E40E94F41B2DEC3CE44DE74B
:100F200053E40E946E1F20E030E04AEF52E40E943A
:100F3000F41B60930C0270930D0280930E02909349
:100F40000F028A81813089F081111AC08BED9FE0F8
:100F5000A9ECBFE38093100290931102A0931202B8
:100F6000B0931302DF91CF91089510921002109266
:100F700011021092120210921302DF91CF91089584
:100F8000833079F48BED9FE0A9E4B0E48093100204
:100F900090931102A0931202B0931302DF91CF91AC
:100FA00008958230F9F684EE9BECA6E9B0E48093D4
:100FB000100290931102A0931202B0931302DF91DA
:100FC000CF91089582E6EFE0F7E0DF011D928A9568
:100FD000E9F7ABE0B7E011968C911197EDE0F7E0FF
:100FE0009C9193509083835081830895882329F0A6
:100FF000823049F0833021F0089585E00C94940C00
:1010000087E00C94940C86E00C94940CCF92DF92C1
:10101000EF92FF920F931F93CF93DF93E82EC09030
:101020001402D0901502809116028E0DCFEFC80FDA
:10103000C43014F0CBEFC80FC7FD4BC06D2D8C2D05
:101040000E94CD1AF82ED82FDF7001E010E00C2E90
:1010500002C0000F111F0A94E2F78D2F90E0802349
:10106000912302C095958795CA95E2F7C1E081303A
:10107000910509F0C0E0019711F10E94770421E089
:10108000E21649F1E1102FC0FC016481758180E016
:1010900090E00E94801D20E030E048E452E40E948D
:1010A000D31C87FF0CC00D2B0F708F2D807FF82E67
:1010B000F02A4F2D6D2D8C2D0E94421BC1E08C2FEC
:1010C000DF91CF911F910F91FF90EF90DF90CF9024
:1010D0000895CC5FB3CFFC016081718180E090E026
:1010E0000E94801DD8CFF2E0EF12E9CFFC016281AF
:1010F000738180E090E00E94801DCDCF0E940608A1
:10110000882311F080E0089583E00E94940C81E030
:1011100008950F931F93CF93DF9380911402811151
:1011200005C080911502833009F4EAC0D0911602FF
:10113000E0910B0780910C0797E0E902F001112480
:10114000E80FF11D87FDFA95EE0FFF1FE15FF84FE5
:101150008081918102969183808380E00E940608BD
:10116000C1E0082F0C2781E00E940608182F1C27D9
:1011700082E00E940608C827DD2309F475C0D33039
:1011800009F0E3C0112309F44AC180910B07909143
:101190000C07282F082E000C330B21503109F901C0
:1011A000EE0FFF1FEE0FFF1FEE0FFF1FE21BF30BF3
:1011B000E90FF11D97FDFA95EE0FFF1FE15FF84F64
:1011C0000190F081E02D4081815080930D07909334
:1011D0000E07002309F414C110910B07612F012E93
:1011E000000C770BD0910C072D2F0D2E000C330B1C
:1011F000FB01EE0FFF1FEE0FFF1FEE0FFF1FDF01C2
:10120000A61BB70BC9010197A80FB91FAA0FBB1FD7
:10121000A15FB84F0D90BC91A02D8D919C91A42FF2
:10122000B0E08A179B070CF489C181E0CC2309F454
:1012300084C050E0E61BF70B2F5F3F4FE20FF31F18
:10124000EE0FFF1FE15FF84F0190F081E02D20814C
:101250003181241735070CF070C010930D07DF5F44
:10126000D0930E0782E069C0112309F46CC09091FD
:101270000B0780910C07E82F082E000CFF0B31960E
:1012800027E09202E00DF11D1124EE0FFF1FE15F38
:10129000F84F0190F081E02D208190930D078F5F32
:1012A00080930E070023D9F190910B07692F092E27
:1012B000000C770BD0910C074D2F0D2E000C550B09
:1012C000FB013197DF01AA0FBB1FAA0FBB1FAA0F9B
:1012D000BB1FAE1BBF0BA40FB51FAA0FBB1FA15F87
:1012E000B84FED91FC910190F081E02D30E0E217D4
:1012F000F3070CF4F9C0CC2309F436C181E0D3C064
:1013000080911602813009F431C182E00E94F60713
:1013100081E0DF91CF911F910F910C947E08C11154
:10132000B4C0111121C180910C0790910B079093CB
:101330000D07815080930E0783E0DF91CF911F91BD
:101340000F910C94F6072FE7ADCFD13009F010C103
:10135000112309F498C080910B0790910C07282F56
:10136000082E000C330B2F5F3F4FF901EE0FFF1FCC
:10137000EE0FFF1FEE0FFF1FE21BF30BE90FF11D36
:1013800097FDFA95EE0FFF1FE15FF84F0190F08196
:10139000E02D40818F5F80930D0790930E0700230F
:1013A00009F43FC010910B07612F012E000C770B41
:1013B000D0910C072D2F0D2E000C330BFB01EE0FDF
:1013C000FF1FEE0FFF1FEE0FFF1FDF01A61BB70B66
:1013D000C9010196A80FB91FAA0FBB1FA15FB84F83
:1013E0000D90BC91A02D8D919C91A42FB0E08A17F7
:1013F0009B070CF49AC081E0CC2309F49ECF28C04F
:10140000C1117EC01111B0C090910C0780910B07E3
:101410008F5F80930D0790930E0783E08ECF4FE789
:10142000D8CECC2309F493C010910B07612F012E65
:10143000000C770BD0910C072D2F0D2E000C330BC9
:1014400081E0FB01EE0FFF1FEE0FFF1FEE0FFF1FEE
:1014500050E0E61BF70B21503109E20FF31FEE0FAE
:10146000FF1FE15FF84F0190F081E02D2081318175
:10147000241735070CF061CF10930D07D150D0938E
:101480000E0782E05ACF4FE78ACF90910B07692F62
:10149000092E000C770BD0910C074D2F0D2E000C50
:1014A000550B81E030E06F5F7F4FFB01EE0FFF1FB8
:1014B000EE0FFF1FEE0FFF1FE61BF70BE40FF51FEC
:1014C000EE0FFF1FE15FF84F0190F081E02D4081AA
:1014D0005181421753070CF030CF9F5F90930D0757
:1014E000D0930E0782E029CF2E2F8FEF890F8093A4
:1014F0000D07D0930E0780E0CC2309F41ECFD2CF86
:1015000010910B07612F012E000C770BD0910C0767
:101510002D2F0D2E000C330B81E0FB01EE0FFF1F72
:10152000EE0FFF1FEE0FFF1F84CE482F10930D0705
:1015300081E08D0F80930E0780E05ECF482F1093DF
:101540000D078FEF8D0F80930E0780E06FCE111186
:101550000BC090910C0780910B07815080930D0771
:1015600090930E0783E0E9CE81E0E7CE80E0CECE17
:10157000D230D1F7112309F473C090910B078091F9
:101580000C07E82F082E000CFF0B319727E0920282
:10159000E00DF11D1124EE0FFF1FE15FF84F0190E8
:1015A000F081E02D608190930D07815080930E07AC
:1015B000002309F457C090910B07292F092E000C26
:1015C000330BD0910C074D2F0D2E000C550BF9014C
:1015D0003196DF01AA0FBB1FAA0FBB1FAA0FBB1FAB
:1015E000AE1BBF0BA40FB51FAA0FBB1FA15FB84F47
:1015F000ED91FC910190F081E02DA62FB0E0EA176B
:10160000FB070CF03FC06E2F81E0890F80930D0720
:10161000D0930E0780E0CC2309F48FCE70E02150E8
:101620003109F901EE0FFF1FEE0FFF1FEE0FFF1F35
:10163000E21BF30BE40FF51FEE0FFF1FE15FF84F06
:101640000190F081E02D20813181261737070CF0C1
:1016500074CE915090930D07D0930E0782E06DCE1B
:101660006FE7A6CFCC2381F090910B07292F092E8D
:10167000000C330BD0910C074D2F0D2E000C550B89
:1016800081E0CCCF81E0C7CF11116ECF80910C07E4
:1016900090910B0790930D078F5F80930E0783E067
:1016A0004CCE8F929F92AF92BF92CF92DF92EF92E9
:1016B000FF92CF93DF93EC017B01288139814A812E
:1016C0005B81FB0160817181828193810E94F41BA7
:1016D0004B015C012C813D814E815F81F70164816A
:1016E0007581868197810E94F41BA50194010E9457
:1016F000741C288539854A855B850E94F41B6B0123
:101700007C012BED3FE049E450EC0E94D31C87FDA7
:1017100021C02BED3FE049E450E4C701B6010E942F
:10172000BA1E181654F42BED3FE049EC50E4C70103
:10173000B6010E94F41B6B017C01C701B601DF9169
:10174000CF91FF90EF90DF90CF90BF90AF909F90A0
:101750008F9008952BED3FE049EC50E4C701B601AE
:101760000E94F51B6B017C01E8CF4F925F926F9254
:101770007F928F929F92AF92BF92CF92DF92EF9221
:10178000FF920F931F93CF93DF930E94510B20E0A2
:1017900030E040E250E40E946E1F20911702309129
:1017A00018024091190250911A020E946E1F20E007
:1017B00030E040E05FE30E946E1F4B015C019B0143
:1017C000AC0160E070E088E492E40E94F41B2B011D
:1017D0003C012CE731E648E951E40E946E1F20E00D
:1017E00030E844E554E40E94F51B0E944A1D6B0159
:1017F0007C018B0120E030E0A901C301B2010E940D
:10180000D31C87FD44C0E8010115104214F0CFEF4E
:10181000DFE120E030E048E452E4C501B4010E9479
:10182000F51B4B015C012CE731E648E951E40E94CD
:101830006E1F20E030E844E554E40E94F51B0E944E
:101840004A1D6B017C013B0120E030E0A901C5018C
:10185000B4010E94D31C87FD25C0B301611480E24E
:10186000780614F06FEF7FE1CE01DF91CF911F91E9
:101870000F91FF90EF90DF90CF90BF90AF909F902F
:101880008F907F906F905F904F900C94BC0DB6013D
:10189000DD0C880B990B0E94821D90580E944A1DF6
:1018A0008B01B1CFB601DD0C880B990B0E94821D14
:1018B00090580E944A1D3B01D0CFFC0190E1A7E166
:1018C000B2E001900D929A95E1F70895809180021F
:1018D00090918102089590938102809380020895EF
:1018E00080E090E00895DC014D915D916D917C91D7
:1018F0001397E0E0F0E04083518362837383149692
:101900004D915D916D917C911797448355836683CA
:10191000778318968D919D910D90BC91A02D808715
:101920009187A287B3870895809388020895809154
:1019300088020895CF93DF9300D000D000D0CDB7B8
:10194000DEB7CE0101960E942D0DBE016F5F7F4F65
:1019500082E892E00E94440D613975408041910512
:1019600018F089E08093880226960FB6F894DEBFBF
:101970000FBECDBFDF91CF91089580E00E94060891
:1019800081E00E94060882E00E94060882E08093BF
:1019900088020895E09188028E2F90E0FC01319733
:1019A000E930F10508F00895E758FF4F0C942C201A
:1019B00068E474EF88EB9BE00C94BC0D68EB7BE073
:1019C00088E494EF0C94BC0D0E94BD0C62EC7BE0AB
:1019D00088EB9BE00C94BC0D0C949A0C0E94F40DC7
:1019E0001092880208951F920F920FB60F92112441
:1019F000179A169890E42FEF30E782E0215030409C
:101A00008040E1F700C0000082B1805882B982B105
:101A1000892782B9F0CFF1990895F19A80916500F4
:101A20008F7D80936500109221018FB7F8941092FA
:101A300025011092240128EE33E0309329012093F0
:101A400028018FBF109222011092200182E0809322
:101A500073008AE0809321010895EFB7F8942091F4
:101A60002401309125014091890250918A026091B0
:101A70008B0270918C02EFBFFC0140835183628323
:101A800073833583248308950F931F93CF93DF933C
:101A9000FC01EB01488159816A817B8180819181C0
:101AA000A281B3819A01AB01281B390B4A0B5B0B56
:101AB000A8EEB3E00E9435204C815D812481358100
:101AC000FA01E21BF30B8F01FF0F220B330B600FA8
:101AD000711F821F931FDF91CF911F910F91089566
:101AE000CF93DF93E5E6F0E08081877E8083A1E9F4
:101AF000B0E01C92E1EAF0E0108282EF8093900067
:101B00008093A000109292001092A2002FB7F89438
:101B100010929500109294001092A5001092A400CB
:101B20008FEF9FE190939700809396009093A7008A
:101B30008093A600909399008093980090939B00C7
:101B400080939A009093A9008093A8009093AB0093
:101B50008093AA008DB188618DB9C1E0D1E0888100
:101B60008861888381E883BD81E18C93808313BC85
:101B70002FBFDF91CF91089597FD18C09F710FB6C9
:101B8000F894109299001092980090939B00809383
:101B90009A0077FD1BC07F711092A9001092A800D7
:101BA0007093AB006093AA000FBE08959195819544
:101BB00091099F710FB6F89410929B0010929A00B1
:101BC000909399008093980077FFE5CF7195619588
:101BD00071097F711092AB001092AA007093A90056
:101BE0006093A8000FBE08952FB7F8948FEF9FE180
:101BF000909399008093980090939B0080939A0013
:101C00009093A9008093A8009093AB008093AA00C2
:101C10002FBF089520918F022F5F90919002291776
:101C2000E1F3E22FF0E0EF50F84F808320938F0232
:101C300088EB8093C900089590918D0280918E0267
:101C40009817D1F390918E029F5F9F77E92FF0E074
:101C5000EF58F84F808190938E02089520918D0265
:101C600090918E0281E02913089580E00895E5E6C1
:101C7000F0E080818E7F80831092CD001092CC00A6
:101C800080E48093C80088E98093C90086E080934F
:101C9000CA000895CF93DF93882339F09FB7F89453
:101CA00085B7806885BF85BF9FBF809164008E7FA8
:101CB0008093640010927A0080B7806880BFE3EF61
:101CC000F8E088EDDF011D928A95E9F7F093F208BC
:101CD000E093F1088FE08093F6088EE080933E0950
:101CE0008DE080938609ABECB9E08FE030E040E016
:101CF00061E070E058E0982F9F709383982F977061
:101D0000292F20642183EB0102C0CC0FDD1F9A959F
:101D1000E2F783FF09C03C2B5283E85BFF4FAE170D
:101D2000BF0741F08381E7CF4C2BE85BFF4FAE1735
:101D3000BF07C1F740937E0030937D008091F40887
:101D400080937C008091F50880937B00F29ADF916C
:101D5000CF910C940B0D28E4829FC0011124FC014B
:101D6000ED50F74F2FB7F89484819581A681B78104
:101D70002FBF25E0B695A795979587952A95D1F71A
:101D80000895EF92FF920F931F93CF93DF930091EB
:101D90009302C0919502D0919602CE0189569D4F33
:101DA0007C011091940209C09FEFE91AF90A0827F3
:101DB00010E00E942E0E882301F10E941C0E1111CA
:101DC00004C0813151F18B3251F1F70180832196AA
:101DD000C115F4E0DF0741F78091920281608093A2
:101DE000920210E087E9E82E82E0F82EC0E0D0E011
:101DF00000E00E942E0E8111E0CF00939302D09359
:101E00009602C0939502117010939402DF91CF91C6
:101E10001F910F91FF90EF90089511E0CACFC43049
:101E2000D105F0F090919702809198028927982F20
:101E300092959F708F708927E09199029E2F9295BD
:101E40009F708917D1F080919202846080939202F2
:101E500027E9E22E22E0F22EC0E0D0E000E0A9CF98
:101E60008091920282608093920297E9E92E92E03B
:101E7000F92EC0E0D0E000E09CCF60919702709115
:101E8000980224976C177D0769F080919202886010
:101E90008093920237E9E32E32E0F32EC0E0D0E0E7
:101EA00000E087CF011115C0EF70F0E0EE0FFF1FCB
:101EB000E956F94F0190F081E02D3097B9F08AE9A9
:101EC00092E0099567E9E62E62E0F62EC0E0D0E0E8
:101ED00070CF8091920280618093920247E9E42E54
:101EE00042E0F42EC0E0D0E000E063CF80919202A7
:101EF00080628093920257E9E52E52E0F52EC0E011
:101F0000D0E057CF80E2E7E9F6E0DF011D928A9545
:101F1000E9F70895E82FF0E0EE0FFF1FE956F94FBB
:101F2000718360830895CF92DF92EF92FF920F93B7
:101F30001F93CF93DF93C82F6B017A01413109F4CE
:101F400060C04B3209F45DC08E2D0E940A0E8F2DA9
:101F5000813109F452C08B3209F44FC08F2D0E9499
:101F60000A0E1F2D1E2520E1129FC0011124D12F22
:101F7000D07FD827CF70DC2BD131D9F1DB32C9F13A
:101F80008D2F0E940A0ED127E114F104E1F08601A1
:101F9000EC0CFD1C07C08C2F0E940A0EDC270E15CE
:101FA0001F0589F0F801C1918F01C13111F0CB32C9
:101FB00091F781E10E940A0E8C2F0E940A0EDC2705
:101FC0000E151F0579F7D13181F0DB3271F08D2FBD
:101FD0000E940A0E8BE2DF91CF911F910F91FF902B
:101FE000EF90DF90CF900C940A0E81E10E940A0ED0
:101FF000EECF81E10E940A0EC3CF81E10E940A0E5A
:10200000ADCF81E10E940A0E9FCF0F931F93CF9314
:10201000DF93CDB7DEB782E091E00E944F208C01C4
:10202000009719F12F81FC012193CF019E01265FBA
:102030003F4F4885598561E071E00E9479218130E8
:10204000F1E09F0774F041E051E0B80180E00E94A8
:10205000930FC8010E94E720DF91CF911F910F914C
:102060000895AC014F5F5F4FF0CF80919202806482
:1020700080939202DF91CF911F910F9108950F935A
:102080001F93CF93DF93CDB7DEB782E091E00E943C
:102090004F208C01009719F12F81FC012193CF0172
:1020A0009E01265F3F4F4885598561E071E00E949F
:1020B000B2218130F1E09F0774F041E051E0B801B6
:1020C00080E00E94930FC8010E94E720DF91CF912A
:1020D0001F910F910895AC014F5F5F4FF0CF80913A
:1020E0009202806480939202DF91CF911F910F91B1
:1020F00008950E942E0E811101C008950C94C10E06
:10210000CF92DF92EF92FF92CF93DF93EC01C880E2
:10211000D980EA80FB8020E030E0A901C701B60148
:102120000E94BA1E181644F4C0922E02D0922F02BA
:10213000E0923002F09231028C8180932D028DEA80
:1021400091E09F938F9382E08F930E943F100F90B6
:102150000F900F90DF91CF91FF90EF90DF90CF9095
:1021600008952F923F924F925F926F927F928F923B
:102170009F92AF92BF92CF92DF92EF92FF920F9316
:102180001F93CF93DF93823008F4AAC05B01D82F4E
:102190001092E0068FEF9FEF90932C0280932B021A
:1021A0001092DF061092EA061092E5061092E606FB
:1021B0001092E7061092E8061092E9068091E10677
:1021C0009091E206009711F00E94E7200D2F10E099
:1021D00078018FEFE81AF80AEE0CFF1CEE0CFF1CDA
:1021E000C7010E944F206C019093E2068093E106A4
:1021F000009709F475C0A701B5010E947021D09322
:10220000E0060250104C000F111F000F111FE601D5
:10221000C00FD11F0C811D812E803F808881998144
:10222000B801681B790B072E000C880B990B0E94D4
:10223000821D2B013C018A819B81B101681B790BB6
:10224000072E000C880B990B0E94821D6B017C01EC
:102250009B01AC01C301B2010E94CD1E4B015C0188
:1022600020E030E040E251E460912E0270912F02B4
:1022700080913002909131020E946E1FA50194015D
:102280000E94D81C4B015C019B01AC01C301B2014F
:102290000E946E1F0E944A1D600F711F7987688718
:1022A000A5019401C701B6010E946E1F0E944A1D3C
:1022B000620D731D7B876A8781E0DF91CF911F914B
:1022C0000F91FF90EF90DF90CF90BF90AF909F90D5
:1022D0008F907F906F905F904F903F902F900895D8
:1022E00080E0EBCFCF93DF93EC0188818823A1F0CE
:1022F000813009F462C0823009F452C0833009F49D
:1023000071C0E091E306F091E4063097E9F069814D
:102310008881DF91CF910994BE016E5F7F4F8981E3
:102320000E94B110811113C082E392E09F938F93BA
:102330001F920E943F100F900F900F90E091E306C4
:10234000F091E406309719F7DF91CF910895E0916D
:10235000E106F091E20687818F9386818F938581D4
:102360008F9384818F9383818F9382818F938181D7
:102370008F9380818F938091E0061F928F9387E0E7
:1023800092E09F938F9382E08F930E943F108DB7CE
:102390009EB70D960FB6F8949EBF0FBE8DBFB1CFFE
:1023A0001092EA0624ED31E03F932F938F930E9421
:1023B0003F100F900F900F90A4CF9091E0069111D5
:1023C00003C085EF91E0B2CF8093EA0684EE91E0FE
:1023D0009F938F9382E08F930E943F100F900F90F6
:1023E0000F908FCF8FEF9FEF90932C0280932B0253
:1023F0001092DF061092EA061092E5061092E606A9
:102400001092E7061092E8061092E90685EC91E03A
:10241000DFCF62E771E183E00E948A0F60E870E13C
:1024200084E00C948A0FFC016181728180810C949C
:10243000B110823009F1833051F0813009F00895F4
:102440009091E0069923D9F38093EA0608958FEFDF
:102450009FEF90932C0280932B021092DF06109234
:10246000EA061092E5061092E6061092E706109230
:10247000E8061092E90608951092EA0608952F9250
:102480003F924F925F926F927F928F929F92AF9204
:10249000BF92CF92DF92EF92FF920F931F93CF9351
:1024A000DF93CDB7DEB7ED970FB6F894DEBF0FBE62
:1024B000CDBF2091EA0629AB222309F439C2FC01E1
:1024C00080819181A281B3818F8F98A3A9A3BAA3A0
:1024D00024813581468157812BA33CA34DA35EA364
:1024E0008091DF06882309F43DC24090D3065090C6
:1024F000D4066090D5067090D6068091C70690915C
:10250000C806A091C906B091CA068B8B9C8BAD8B77
:10251000BE8B2091C3063091C4064091C5065091F0
:10252000C6062F87388B498B5A8B8091BF069091B6
:10253000C006A091C106B091C2068F8B988FA98F5B
:10254000BA8F0091EB061091EC06A090ED06B090CA
:10255000EE062091DB063091DC064091DD065091BD
:10256000DE0629833A834B835C838091D706909162
:10257000D806A091D906B091DA068D839E83AF83E9
:10258000B887A0912B02B0912C02B8ABAFA79D01E8
:102590002F5F3F4FE091E106F091E206FE87ED8765
:1025A000C9010196AC01440F551F440F551F58A790
:1025B0004FA31901C090CB06D090CC068091CD06D8
:1025C0009091CE069BAF8AAFB801110F880B990B83
:1025D0000E94821D9B01AC016F8D78A189A19AA1F7
:1025E0000E94F41B69877A878B879C87B501BB0C97
:1025F000880B990B0E94821D9B01AC016BA17CA1F1
:102600008DA19EA10E94F41B4B015C0129813A819E
:102610004B815C810E946E1F7B018C0129853A856C
:102620004B855C856D817E818F8198850E94D41D4C
:10263000A30192010E94D81C6BA77CA78DA79EA71F
:102640002B013C0177FA709477F87094E984FA844E
:102650000B851C85A30192016D817E818F819885F8
:102660000E94D41D0E9421206B8F7C8F8D8F9E8FA6
:1026700085017401A301920169817A818B819C811A
:102680000E94D41D0E9421209B01AC016B8D7C8D8A
:102690008D8D9E8D0E94F51B6AAB7BAB8CAB9DAB89
:1026A0002D813E814F81588569857A858B859C85F2
:1026B0000E94F41B2B013C0129813A814B815C81F2
:1026C000C501B4010E94F41B4B015C012B893C89BC
:1026D0004D895E890E946E1F7B018C01A3019201CE
:1026E0006F85788989899A890E94D41D2F89388DB0
:1026F000498D5A8D0E94D81C6EAB7FAB88AF99AFC5
:1027000020E030E0A9010E94BA1E87FDFEC520E04E
:1027100030E040E85FE36EA97FA988AD99AD0E94E3
:10272000D31C18160CF0F6C5EFA5F8A9FAA7E9A76F
:10273000AD85BE85EFA1F8A5AE0FBF1FF0912D02AC
:10274000FB8F2091E0062FA3422F50E0588F4F8B34
:102750001982BDAFACAF0AAD1BAD04C0CD84DE8421
:1027600009851A85F981FF5FF9832B8DF21708F02F
:1027700028C23FEF231A330A4F89588D2416350695
:102780000CF01FC28CAD9DAD04969DAF8CAFDC01EB
:102790000D90BC91A02DBE87AD87FC010280F38116
:1027A000E02DFA87E987BD016C197D09072E000C21
:1027B000880B990B0E94821D4B015C0169857A850B
:1027C000601B710B072E000C880B990B0E94821D59
:1027D0006D837E838F839887B601DD0C880B990B00
:1027E0000E94821D9B01AC016F8D78A189A19AA1E5
:1027F0000E94F41B6F87788B898B9A8BB801110F1D
:10280000880B990B0E94821D9B01AC016BA17CA1DE
:102810008DA19EA10E94F41B6B8B7C8B8D8B9E8B5C
:102820009B01AC016D817E818F8198850E946E1F16
:102830007B018C012F85388949895A89C501B401EA
:102840000E94D41D6B017C01C501B4010E942120AE
:102850002B013C016D817E818F8198850E94212012
:102860009B01AC01C301B2010E94F51B9B01AC01AD
:10287000C701B6010E94D81C2B013C0120E030E0CA
:10288000A9010E94BA1E87FD69CF20E030E040E830
:102890005FE3C301B2010E94D31C18160CF45ECF93
:1028A00077FA709477F87094EF84F88809891A8918
:1028B000A3019201C501B4010E94D41D0E942120F0
:1028C0004B015C01EB88FC880D891E89A3019201F4
:1028D0006D817E818F8198850E94D41D0E94212068
:1028E0009B01AC01C501B4010E94F51B7B018C0169
:1028F0009B01AC016AA97BA98CA99DA90E94BA1E63
:1029000018160CF02BCF3AA629A6EAAAFBAA0CAB04
:102910001DAB24CF1092EA0686E691E09F938F9339
:1029200082E08F930E943F100F900F900F9019AA92
:1029300089A9ED960FB6F894DEBF0FBECDBFDF912B
:10294000CF911F910F91FF90EF90DF90CF90BF90AC
:10295000AF909F908F907F906F905F904F903F903F
:102960002F90089581E08093DF06A091E106B09159
:10297000E206BE87AD878D919D910D90BC91A02DF3
:102980008093EF069093F006A093F106B093F206C1
:102990008F87988BEF85F889BF01FF0F880B990B04
:1029A0000E94821D2F8D38A149A15AA10E94F41BBB
:1029B0006D837E838F8398876093D7067093D80644
:1029C0008093D9069093DA068090F1069090F206F3
:1029D000B401092C000C880B990B0E94821D2BA1BD
:1029E0003CA14DA15EA10E94F41B69837A838B8375
:1029F0009C836093DB067093DC068093DD069093E6
:102A0000DE066D817E818F8198850E9421206B0179
:102A10007C0169817A818B819C810E942120A701A0
:102A200096010E94F51B2B013C016093D306709325
:102A3000D4068093D5069093D6062AE037ED43E27C
:102A40005CE30E94D31CED85FE8587FD73C3848102
:102A50009581A681B7818093CB069093CC06A093F5
:102A6000CD06B093CE066F8D78A189A19AA10E9460
:102A70004A1D8B017093EC066093EB066BA17CA161
:102A80008DA19EA10E944A1D5B017093EE0660938A
:102A9000ED0620912B0230912C0238AB2FA71901A3
:102AA0003FEF231A330AC1010196AC01440F551FB1
:102AB000440F551F58A74FA38091CB069091CC0689
:102AC0009A878987BC01AF85B8896A1B7B0B072E63
:102AD000000C880B990B0E94821D6F87788B898B65
:102AE0009A8B6093C3067093C4068093C506909337
:102AF000C606E091CD06F091CE06FBAFEAAFBF016E
:102B000068197909072E000C880B990B0E94821D09
:102B10006B8B7C8B8D8B9E8B6093C7067093C806E6
:102B20008093C9069093CA066F85788989899A89A6
:102B30000E9421206B017C016B897C898D899E8993
:102B40000E9421209B01AC01C701B6010E94F51B28
:102B50006F8B788F898F9A8F6093BF067093C006B2
:102B60008093C1069093C2060E94E11F6093BB064A
:102B70007093BC068093BD069093BE06C301B2015C
:102B80000E94E11F9B01AC016093CF067093D006B9
:102B90008093D1069093D20660912E0270912F02FD
:102BA00080913002909131020E94D81C6093B70648
:102BB0007093B8068093B9069093BA06C984DA84F4
:102BC00003CD89A59AA5AF89B88D8A179B0709F40B
:102BD0003CC449A55AA58FA598A9841795070CF45C
:102BE00011C1C090B706D090B806E090B906F09039
:102BF000BA068F89988D0297EFA5F8A98E179F07BF
:102C000009F476C220E030E040E85FE36BA57CA5E4
:102C10008DA59EA50E94BA1E181644F420E030E04F
:102C200040E85FE32BA73CA74DA75EA7A70196014D
:102C30006BA57CA58DA59EA50E94F51B4B015C0193
:102C400020E030E040E85FE30E94D31C18160CF04F
:102C500030C420E030E040E85FE3C501B4010E94E9
:102C6000F41B2091CF063091D0064091D1065091AF
:102C7000D2060E946E1F6B017C018090BB06909073
:102C8000BC06A090BD06B090BE06A50194010E94AE
:102C9000D31CA501940118160CF08EC3C701B60110
:102CA0000E94F41B6B017C010091CB061091CC06B5
:102CB0002090CD063090CE068FA48394912C3FEFC8
:102CC000831A930A880C991C880C991C8091E10640
:102CD0009091E206880E991E4FA54E5F49835FA131
:102CE000451788F080C0C701B6010E94F41B6B0134
:102CF0007C01F981FF5FF98315010D851E852FA1E8
:102D0000F21708F070C084E0880E911CD4010D9079
:102D1000BC91A02DBE87AD87F401A280B380BD0118
:102D2000601B710B072E000C880B990B0E94821DF3
:102D30006D837E838F839887B50162197309072E8F
:102D4000000C880B990B0E94821D69877A878B87FC
:102D50009C879B01AC016D817E818F8198850E944B
:102D6000CD1E2B013C01A70196010E94BA1EA301B2
:102D7000920187FDB8CFC701B6010E94D81C4B0154
:102D80005C01B801110F880B990B0E94821D7B0119
:102D90008C01A50194016D817E818F8198850E94AF
:102DA000D41D2B013C01B101330C880B990B0E94FF
:102DB000821D7B018C01A501940169857A858B8533
:102DC0009C850E94D41D4092F3065092F4066092B6
:102DD000F5067092F6066093F7067093F8068093F6
:102DE000F9069093FA0639814FA13413A1CD89E3F6
:102DF00091E09F938F931F920E943F100F900F902E
:102E00000F9096CD8F89988D0197A9A5BAA5A8177F
:102E1000B90709F47FCDBAA5BF93E9A5EF93F8A947
:102E2000FF932FA52F9384E492E09F938F9382E0EA
:102E30008F930E940510E091E106F091E20689A5CA
:102E40009AA5880F991F880F991FE80FF91F809185
:102E50002B0290912C0201960FB6F894DEBF0FBEA4
:102E6000CDBFA9A5BAA5A817B90709F4EBC1AF0151
:102E70004C5F5F4F5E834D8380819181A281B381DE
:102E80008093EB069093EC06A093ED06B093EE06CC
:102E900084819581A681B7818093EF069093F00697
:102EA000A093F106B093F206282E392E0091EB067E
:102EB0001091EC06B101601B710B072E000C880B02
:102EC000990B0E94821D2B013C016093D7067093E1
:102ED000D8068093D9069093DA068091F1069091F6
:102EE000F2069A878987A091ED06B091EE06BA8323
:102EF000A983BC016A1B7B0B072E000C880B990B66
:102F00000E94821D6B017C016093DB067093DC06DE
:102F10008093DD069093DE06C301B2010E9421205A
:102F20004B015C01C701B6010E9421209B01AC014D
:102F3000C501B4010E94F51B4B015C016093D306EF
:102F40007093D4068093D5069093D606E981FA81D2
:102F5000BF01FF0F880B990B0E94821D9B01AC01E2
:102F60006BA17CA18DA19EA10E94F41BA7019601DB
:102F70000E946E1F6B017C01B801110F880B990B29
:102F80000E94821D9B01AC016F8D78A189A19AA13D
:102F90000E94F41B9B01AC0187017601C301B201C1
:102FA0000E94D41DA50194010E94D81C6BA77CA788
:102FB0008DA79EA7C501B4010E94E11F362F272FC0
:102FC000462F572FBC014093CF065093D0066093F5
:102FD000D1067093D206632F722F9B01AC016091D2
:102FE0002E0270912F0280913002909131020E9446
:102FF000D81C6B017C016093B7067093B806809370
:10300000B9069093BA06ED81FE8184819581A681EF
:10301000B7818093CB069093CC06A093CD06B09356
:10302000CE06BC0162197309072E000C880B990BA0
:103030000E94821D2B013C016093C3067093C4065D
:103040008093C5069093C6066091CD067091CE061A
:1030500029853A85621B730B072E000C880B990B90
:103060000E94821D4B015C016093C7067093C806E5
:103070008093C9069093CA06C301B2010E94212021
:103080002B013C01C501B4010E9421209B01AC0130
:10309000C301B2010E94F51B6093BF067093C00686
:1030A0008093C1069093C2060E94E11F6093BB0605
:1030B0007093BC068093BD069093BE0649A55AA5A1
:1030C00050932C0240932B025091E0065FA3852F72
:1030D00090E0988F8F8BA9A5BAA5B8ABAFA78F89C1
:1030E000988D0297EFA5F8A98E179F0709F08ACD52
:1030F00081E08093E5062BA53CA54DA55EA560E08B
:1031000070E080E89FE30E94F41B9B01AC0160919A
:10311000CF067091D0068091D1069091D2060E9480
:103120006E1F6093E6067093E7068093E80690931F
:10313000E90668CD80859185A285B3858093CB060D
:103140009093CC06A093CD06B093CE068481958152
:10315000A681B7818093EF069093F006A093F106C5
:10316000B093F20680819181A281B3818093EB06B6
:103170009093EC06A093ED06B093EE064091EF0617
:103180005091F006588B4F87082F192FBA01601BFA
:10319000710B072E000C880B990B0E94821D6D830A
:1031A0007E838F8398876093D7067093D806809329
:1031B000D9069093DA068090F1069090F206A090DE
:1031C000ED06B090EE06B4016A197B09072E000CDB
:1031D000880B990B0E94821D69837A838B839C8361
:1031E0006093DB067093DC068093DD069093DE0629
:1031F0006D817E818F8198850E9421206B017C01E9
:1032000069817A818B819C810E942120A70196018E
:103210000E94F51B2B013C016093D3067093D406EA
:103220008093D5069093D60610922C0210922B0212
:1032300088E090E098A78FA322242394312C18AA29
:103240001FA63ACC9F012C5F3F4F3E832D83809178
:10325000BF069091C006A091C106B091C2068093AE
:10326000D3069093D406A093D506B093D60688E0F3
:10327000E3ECF6E0A7EDB6E001900D928A95E1F758
:103280008091EF069091F006A091F106B091F206C0
:103290008093EB069093EC06A093ED06B093EE06B8
:1032A0008091CB069091CC06A091CD06B091CE0630
:1032B000582F492F8093EF069093F006A093F106C4
:1032C000B093F2066091BB067091BC068091BD067A
:1032D0009091BE068B019C010093CF061093D006FF
:1032E0002093D1063093D206252E342E4091F1063C
:1032F0005091F2065A8749872EA93FA948AD59AD8A
:103300002BA73CA74DA75EA768CEAFA5B8A9BAA7C3
:10331000A9A70ECA830172014EA85FA868AC79AC58
:1033200077FA709477F87094A30192016F85788989
:1033300089899A890E94D41D0E94212069837A83F9
:103340008B839C8385017401A30192016B897C8925
:103350008D899E890E94D41D0E9421209B01AC0171
:1033600069817A818B819C810E94F51B69837D83B1
:10337000182F092F9B01482F592F6AA97BA98CA9C7
:103380009DA90E94BA1E18160CF47FC020E030E000
:1033900040E85FE36BA57CA58DA59EA50E94BA1EA3
:1033A00018160CF07BC03AA629A639813AAB4D819C
:1033B0004BAB1CAB0DABBCC9C701B6010E94D81CFE
:1033C0004B015C016091EF067091F006072E000C36
:1033D000880B990B0E94821D7B018C016091C306B2
:1033E0007091C4068091C5069091C606A50194010E
:1033F0000E94D41D2B013C016091F1067091F206F0
:10340000072E000C880B990B0E94821D7B018C01FA
:103410006091C7067091C8068091C9069091CA064E
:10342000A50194010E94D41D4092F3065092F40627
:103430006092F5067092F6066093F7067093F806B0
:103440008093F9069093FA0673CA8AE791E09F93F6
:103450008F931F920E943F10B091E006BFA3EB2F05
:10346000F0E0F88FEF8B20912B0230912C0238ABDB
:103470002FA7C090B706D090B806E090B906F0909C
:10348000BA060F900F900F90B4CB3AA629A6F981F7
:10349000FAAB2D812BAB1CAB0DAB4AC92FA538A9BC
:1034A0002F3F3F4F09F448C08FA598A99AA789A735
:1034B0003FC96091EB067091EC06072E000C880B5B
:1034C000990B0E94821D7B018C016091D70670913F
:1034D000D8068091D9069091DA06A50194010E9440
:1034E000D41D2B013C016091ED067091EE06072E74
:1034F000000C880B990B0E94821D7B018C0160914E
:10350000DB067091DC068091DD069091DE06A50158
:1035100094010E94D41D4092F3065092F4066092EA
:10352000F5067092F6066093F7067093F80680939E
:10353000F9069093FA06FCC93AA629A659815AAB16
:103540008D818BAB1CAB0DABF3C88AEE96E0089572
:103550004130B1F04230F1F0433099F0442319F09A
:1035600080E090E00895282F862F90E0880F991F23
:10357000880F991F880F991FC896820F911D089573
:103580006F5F70E09B0148E0849F200D311D112486
:10359000C901089521E0280FE7CF1F93CF93DF9350
:1035A000873028F080E0DF91CF911F910895673038
:1035B000C8F7162FD82F43E00E94A81A8F3F2FEF8D
:1035C000920781F3FC01F695E795F695E795F69558
:1035D000E795E550F94F228130E0AC01477055275F
:1035E00002C0359527954A95E2F7C0E020FBC3F964
:1035F0000196FC01F695E795F695E795F695E79522
:10360000E550F94F228130E08770992702C0359547
:1036100027958A95E2F720FBC1F940E0612F8D2FB5
:103620000E94A81AFC01F695E795F695E795F695A0
:10363000E795E550F94F228130E0AC0147705527FE
:1036400002C0359527954A95E2F720FBC0F901960F
:10365000FC01F695E795F695E795F695E795E55023
:10366000F94F228130E087709927A90102C0559552
:1036700047958A95E2F740FBC2F98C2FDF91CF91F5
:103680001F9108951F93CF93DF93873008F074C084
:10369000673008F071C0C42F162FD82F43E00E9466
:1036A000A81A8F3F2FEF920709F466C0FC01F69528
:1036B000E795F695E795F695E795E550F94FAC0156
:1036C0004770552721E030E001C0220F4A95EAF704
:1036D000C3FD56C020953281232322830196FC012D
:1036E000F695E795F695E795F695E795E550F94F48
:1036F000C1FD60C09C012770332781E090E001C0CC
:10370000880F2A95EAF7809592818923828340E089
:10371000612F8D2F0E94A81AC0FD36C0FC01F695BE
:10372000E795F695E795F695E795E550F94FAC01E5
:103730004770552721E030E001C0220F4A95EAF793
:1037400020953281232322830196FC01F695E7958B
:10375000F695E795F695E795E550F94F9C012770AA
:10376000332781E090E001C0880F2A95EAF7C2FF75
:1037700030C09281892B8283DF91CF911F91089570
:103780003281232B2283AACFFC01F695E795F6958B
:10379000E795F695E795E550F94FAC014770552749
:1037A00021E030E001C0220F4A95EAF73281232B55
:1037B0002283CACF8770992721E030E0A90102C097
:1037C000440F551F8A95E2F7CA019281892B8283A3
:1037D0009ECF8095928189238283DF91CF911F9123
:1037E00008958BEF96E008955058BB27AA270E94B2
:1037F0000C1C0C94681E0E945A1E38F00E94611E18
:1038000020F039F49F3F19F426F40C94301E0EF486
:10381000E095E7FB0C94011EE92F0E94791E58F3F6
:10382000BA17620773078407950720F079F4A6F5A5
:103830000C94B31E0EF4E0950B2EBA2FA02D0B01A5
:10384000B90190010C01CA01A0011124FF27591BE5
:1038500099F0593F50F4503E68F11A16F040A22FEB
:10386000232F342F4427585FF3CF4695379527955C
:10387000A795F0405395C9F77EF41F16BA0B620B5B
:10388000730B840BBAF09150A1F0FF0FBB1F661FA2
:10389000771F881FC2F70EC0BA0F621F731F841FE5
:1038A00048F4879577956795B795F7959E3F08F00B
:1038B000B0CF9395880F08F09927EE0F97958795CD
:1038C00008950E945A1E60F080E891E009F49EEF8E
:1038D0000E94611E28F040E851E071F45EEF0CC0D8
:1038E0000C94301E0C94B31EE92FE0780E94791ED0
:1038F00040F3092E052AB1F3261737074807590761
:1039000038F00E2E07F8E02569F0E025E0640AC0E3
:10391000EF6307F8009407FADB01B9019D01DC01B0
:10392000CA01AD01EF930E94EF1C0E94681E0E9425
:10393000A41C5F91552339F02BED3FE049E450FD85
:1039400049EC0C94F51B0895DF93DD27B92FBF7761
:1039500040E85FE31616170648075B0718F4D92FEF
:103960000E942C1F9F938F937F936F930E9421201F
:10397000E4E0F1E00E94331E0E94681E2F913F9107
:103980004F915F910E94811FDD2351F09058A2EA70
:103990002AED3FE049EC5FE3D0785D270E940C1CE4
:1039A000DF910C94681E0E94DD1D08F481E00895EB
:1039B0000E94EC1C0C94681E0E94611E58F00E942C
:1039C0005A1E40F029F45F3F29F00C94011E51115A
:1039D0000C94B41E0C94301E0E94791E68F3992337
:1039E000B1F3552391F3951B550BBB27AA276217FB
:1039F0007307840738F09F5F5F4F220F331F441F08
:103A0000AA1FA9F335D00E2E3AF0E0E832D091503B
:103A10005040E695001CCAF72BD0FE2F29D0660F28
:103A2000771F881FBB1F261737074807AB07B0E86B
:103A300009F0BB0B802DBF01FF2793585F4F3AF071
:103A40009E3F510578F00C94011E0C94B41E5F3F0C
:103A5000E4F3983ED4F3869577956795B795F795F7
:103A60009F5FC9F7880F911D9695879597F90895DF
:103A7000E1E0660F771F881FBB1F6217730784077B
:103A8000BA0720F0621B730B840BBA0BEE1F88F78A
:103A9000E09508950E94511D6894B1110C94B41ED4
:103AA00008950E94811E88F09F5798F0B92F99279A
:103AB000B751B0F0E1F0660F771F881F991F1AF019
:103AC000BA95C9F714C0B13091F00E94B31EB1E0AD
:103AD00008950C94B31E672F782F8827B85F39F0AC
:103AE000B93FCCF3869577956795B395D9F73EF4B2
:103AF00090958095709561957F4F8F4F9F4F08955A
:103B0000E89409C097FB3EF4909580957095619577
:103B10007F4F8F4F9F4F9923A9F0F92F96E9BB272D
:103B20009395F695879577956795B795F111F8CFA9
:103B3000FAF4BB0F11F460FF1BC06F5F7F4F8F4F14
:103B40009F4F16C0882311F096E911C0772321F00A
:103B50009EE8872F762F05C0662371F096E8862FA2
:103B600070E060E02AF09A95660F771F881FDAF7F9
:103B7000880F9695879597F908950E949B1E90F05F
:103B80009F3748F4911116F00C94B41E60E070E079
:103B900080E89FEB089526F41B16611D711D811DA1
:103BA0000C94071E0C94221E0E94811F9701A801ED
:103BB000AA270E940C1C0C94681E990F0008550F30
:103BC000AA0BE0E8FEEF16161706E807F907C0F0A3
:103BD00012161306E407F50798F0621B730B840BAB
:103BE000950B39F40A2661F0232B242B252B21F485
:103BF00008950A2609F4A140A6958FEF811D811D25
:103C0000089597F99F6780E870E060E00895882341
:103C100071F4772321F09850872B762F07C0662305
:103C200011F499270DC09051862B70E060E02AF0C6
:103C30009A95660F771F881FDAF7880F96958795F4
:103C400097F908959F3F31F0915020F4879577952B
:103C50006795B795880F911D9695879597F9089563
:103C60009FEF80EC0895DF93CF931F930F93FF9204
:103C7000EF92DF927B018C01689406C0DA2EEF018F
:103C80000E94811FFE01E894A591259135914591EF
:103C90005591A6F3EF010E940C1CFE019701A801AB
:103CA000DA9469F7DF90EF90FF900F911F91CF9119
:103CB000DF91089500240A941616170618060906BF
:103CC000089500240A941216130614060506089592
:103CD000092E0394000C11F4882352F0BB0F40F41A
:103CE000BF2B11F460FF04C06F5F7F4F8F4F9F4F5A
:103CF000089557FD9058440F551F59F05F3F71F0DC
:103D00004795880F97FB991F61F09F3F79F0879542
:103D10000895121613061406551FF2CF4695F1DFCB
:103D200008C0161617061806991FF1CF869571055B
:103D30006105089408950E94811EA0F0BEE7B9179E
:103D400088F4BB279F3860F41616B11D672F782FB3
:103D50008827985FF7CF869577956795B11D9395DE
:103D60009639C8F30895E894BB2766277727CB01D7
:103D700097F908950E94DD1D08F48FEF08950E94C1
:103D80005A1E29F00E94611E11F00C94301E0C94F2
:103D9000011EB901CA010C94221E9F775F770E9411
:103DA000791E68F39923A9F35523A9F3FF279517E3
:103DB00058F4E52FE91BED3060F75E3B10F0F1E4BD
:103DC0001CC09034E0F40AC0E92FE51BED3018F771
:103DD0009E3B10F0F1E411C0503488F4F9EA8823D6
:103DE0002AF09A95660F771F881FDAF744232AF086
:103DF0005A95220F331F441FDAF79F1B5F1BFF9357
:103E00001F930F93FF92EF9279018A01BB27AB2F8B
:103E10009B01AC010E94841F9701A801BF937B0105
:103E20008C01AA27BA2FB901CA010E94841FAF9141
:103E30009701A801EF90FF900F911F910E940C1C19
:103E40000E94681E0E94E11F4F9140FF0895552770
:103E500047FD50950C94381F9B01AC0160E070E069
:103E600080E89FE30C94D81C0C94011E0C94221E35
:103E70000E94811ED8F39923C9F3940F511DA3F317
:103E80009150504094F059F0882332F0660F771F1C
:103E9000881F91505040C1F79E3F51052CF7880F65
:103EA000911D9695879597F908955F3FACF0983EE0
:103EB0009CF0BB27869577956795B79508F4B16018
:103EC0009395C1F7BB0F58F711F460FFE8CF6F5F10
:103ED0007F4F8F4F9F4FE3CF0C94B41E0E94811FE2
:103EE0000C94681E0E945A1E38F00E94611E20F039
:103EF000952311F00C94011E0C94301E11240C9487
:103F0000B41E0E94791E70F3959FC1F3950F50E087
:103F1000551F629FF001729FBB27F00DB11D639F7B
:103F2000AA27F00DB11DAA1F649F6627B00DA11D21
:103F3000661F829F2227B00DA11D621F739FB00DC7
:103F4000A11D621F839FA00D611D221F749F332737
:103F5000A00D611D231F849F600D211D822F762FD0
:103F60006A2F11249F5750409AF0F1F088234AF0AD
:103F7000EE0FFF1FBB1F661F771F881F9150504019
:103F8000A9F79E3F510580F00C94011E0C94B41EBD
:103F90005F3FE4F3983ED4F3869577956795B795A0
:103FA000F795E7959F5FC1F7FE2B880F911D9695BA
:103FB000879597F9089519F416F40C94301E0C9413
:103FC000221E0E94811EB8F39923C9F3B6F39F57AE
:103FD000550B87FF0E9425200024A0E640EA9001AF
:103FE00080585695979528F4805C660F771F881F38
:103FF00020F026173707480730F4621B730B840B39
:10400000202931294A2BA69517940794202531257C
:104010004A2758F7660F771F881F20F026173707A3
:10402000480730F4620B730B840B200D311D411DCA
:10403000A09581F7B901842F9158880F969587959F
:1040400008959B01AC010C946E1F91505040660F77
:10405000771F881FD2F70895EE0FFF1F0024001C62
:104060000BBE0790F691E02D09940E944020A59F79
:10407000900DB49F900DA49F800D911D1124089563
:10408000A29FB001B39FC001A39F700D811D112499
:10409000911DB29F700D811D1124911D08950F93E4
:1040A0001F93CF93DF938230910510F482E090E06C
:1040B000E091CD09F091CE0920E030E0A0E0B0E041
:1040C000309719F1408151810281138148175907B6
:1040D000C8F08417950769F4109731F012960C9385
:1040E000129713961C9327C00093CD091093CE0905
:1040F00022C02115310519F04217530718F49A010F
:10410000BD01EF01DF01F801DBCF21153105F9F029
:10411000281B390B2430310580F48A819B8161157D
:10412000710521F0FB019383828304C09093CE0933
:104130008093CD09FE01329644C0FE01E20FF31FC9
:104140008193919322503109398328833AC0209179
:10415000CB093091CC09232B41F4209102023091FC
:1041600003023093CC092093CB09209100023091B7
:1041700001022115310541F42DB73EB740910402EB
:1041800050910502241B350BE091CB09F091CC092D
:10419000E217F307A0F42E1B3F0B2817390778F01E
:1041A000AC014E5F5F4F2417350748F04E0F5F1F7D
:1041B0005093CC094093CB098193919302C0E0E0E6
:1041C000F0E0CF01DF91CF911F910F910895CF9330
:1041D000DF93009709F481C0FC01329713821282A9
:1041E000A091CD09B091CE09109781F42081318141
:1041F000820F931F2091CB093091CC0928173907E2
:1042000051F5F093CC09E093CB0967C0ED0120E0B4
:1042100030E0CE17DF0740F44A815B819E014115F3
:104220005105F1F0EA01F5CFD383C283408151817A
:10423000840F951FC817D90759F488819981840F75
:10424000951F0296918380838A819B8193838283C9
:104250002115310529F4F093CE09E093CD093DC035
:10426000E901FB83EA8349915991C40FD51FEC17EB
:10427000FD0761F480819181840F951F0296E90109
:1042800099838883828193819B838A83E0E0F0E035
:1042900012968D919C911397009719F0FD01DC0106
:1042A000F7CF8D919C9111979D012E5F3F4F820F0B
:1042B000931F2091CB093091CC092817390769F455
:1042C000309729F41092CE091092CD0902C01382C2
:1042D0001282B093CC09A093CB09DF91CF910895BE
:1042E000FB01DC0102C001900D9241505040D8F713
:1042F00008950F931F93CF93DF93CDB7DEB72E971B
:104300000FB6F894DEBF0FBECDBF8C01FA0186E078
:104310008C831A83098377FF02C060E070E8CB01C9
:1043200001979E838D83A901BF01CE0101960E9452
:10433000EB214D815E8157FD0AC02F8138854217E0
:1043400053070CF49A01F801E20FF31F10822E9626
:104350000FB6F894DEBF0FBECDBFDF91CF911F9196
:104360000F9108950F931F93CF93DF93CDB7DEB7CF
:104370002E970FB6F894DEBF0FBECDBF8C01FA01A9
:104380008EE08C831A83098377FF02C060E070E8B7
:10439000CB0101979E838D83A901BF01CE010196B8
:1043A0000E94EB214D815E8157FD0AC02F81388527
:1043B000421753070CF49A01F801E20FF31F108221
:1043C0002E960FB6F894DEBF0FBECDBFDF91CF9112
:1043D0001F910F9108952F923F924F925F926F928B
:1043E0007F928F929F92AF92BF92CF92DF92EF9285
:1043F000FF920F931F93CF93DF93CDB7DEB72B9729
:104400000FB6F894DEBF0FBECDBF6C017B018A01F1
:10441000FC0117821682838181FFCCC1CE010196F7
:104420003C01F6019381F70193FD859193FF819102
:104430007F01882309F4BAC1853239F493FD85914F
:1044400093FF81917F01853229F4B60190E00E94AB
:104450000B24E7CF912C212C312CFFE1F315D8F060
:104460008B3279F038F4803279F08332A1F4232D45
:1044700020611DC08D3261F0803369F4232D2160ED
:1044800016C0832D8260382EE32DE4603E2E2AC0B4
:10449000F32DF8601DC037FC2DC020ED280F2A3009
:1044A00040F08E32B9F436FC81C1232D2064322EC7
:1044B00019C036FE06C08AE0989E200D1124922E67
:1044C00011C0EAE02E9E200D1124222EF32DF06261
:1044D0003F2E08C08C3621F4832D8068382E02C010
:1044E000883641F4F70193FD859193FF81917F0117
:1044F0008111B3CF982F9F7D9554933028F40C5F92
:104500001F4F9FE399830DC0833631F0833771F0DD
:10451000833509F059C021C0F801808189830E5F7D
:104520001F4F88248394912C530113C02801F2E07B
:104530004F0E511CF801A080B18036FE03C0692DDA
:1045400070E002C06FEF7FEFC5010E9400244C01B4
:104550008201F32DFF773F2E16C0280122E0420E84
:10456000511CF801A080B18036FE03C0692D70E0B7
:1045700002C06FEF7FEFC5010E94F5234C01F32DC0
:10458000F0683F2E820133FC1BC0822D90E088161C
:104590009906B0F4B60180E290E00E940B242A94C0
:1045A000F4CFF50137FC859137FE81915F01B601AB
:1045B00090E00E940B2421102A9421E0821A910895
:1045C0008114910471F7E8C0843611F0893641F501
:1045D000F80137FE07C060817181828193810C5F91
:1045E0001F4F08C060817181072E000C880B990B4A
:1045F0000E5F1F4FF32DFF763F2E97FF09C090955A
:104600008095709561957F4F8F4F9F4FF0683F2E3B
:104610002AE030E0A3010E944724882E861845C076
:10462000853731F4232D2F7EB22E2AE030E025C0CD
:10463000932D997FB92E8F36C1F018F4883579F013
:10464000B5C0803719F0883721F0B0C0E92FE0619C
:10465000BE2EB4FE0DC0FB2DF460BF2E09C034FE8B
:104660000AC0292F2660B22E06C028E030E005C01F
:1046700020E130E002C020E132E0F801B7FE07C0DF
:1046800060817181828193810C5F1F4F06C06081C0
:10469000718180E090E00E5F1F4FA3010E944724CC
:1046A000882E8618FB2DFF773F2E36FE0DC0232D5A
:1046B0002E7FA22E891458F434FE0BC032FC09C0A0
:1046C000832D8E7EA82E05C0B82CA32C03C0B82C39
:1046D00001C0B92CA4FE0FC0FE01E80DF11D8081C0
:1046E000803321F49A2D997EA92E09C0A2FE06C01E
:1046F000B394B39404C08A2D867809F0B394A3FCD4
:1047000011C0A0FE06C0B21488F4280C922C9B188D
:104710000EC0B21460F4B60180E290E00E940B2457
:10472000B394F7CFB21418F42B1802C0982C212C94
:10473000A4FE10C0B60180E390E00E940B24A2FE0C
:1047400017C0A1FC03C088E790E002C088E590E0B4
:10475000B6010CC08A2D867859F0A1FE02C08BE20A
:1047600001C080E2A7FC8DE2B60190E00E940B241C
:10477000891438F4B60180E390E00E940B249A94E7
:10478000F7CF8A94F301E80DF11D8081B60190E026
:104790000E940B248110F5CF222009F442CEB601ED
:1047A00080E290E00E940B242A94F6CFF6018681E5
:1047B000978102C08FEF9FEF2B960FB6F894DEBF64
:1047C0000FBECDBFDF91CF911F910F91FF90EF9062
:1047D000DF90CF90BF90AF909F908F907F906F9021
:1047E0005F904F903F902F900895FC01059061508D
:1047F00070400110D8F7809590958E0F9F1F0895F7
:10480000FC016150704001900110D8F7809590959F
:104810008E0F9F1F08950F931F93CF93DF93FB017C
:10482000238121FD03C08FEF9FEF2CC022FF16C014
:1048300046815781248135814217530744F4A08172
:10484000B1819D012F5F3F4F318320838C9326815F
:1048500037812F5F3F4F3783268314C08B01EC01D4
:10486000FB010084F185E02D0995892BE1F6D80143
:1048700016968D919C911797019617969C938E93FF
:104880001697CE01DF91CF911F910F910895FA01F4
:10489000AA27283051F1203181F1E8946F936E7F7F
:1048A0006E5F7F4F8F4F9F4FAF4FB1E03ED0B4E070
:1048B0003CD0670F781F891F9A1FA11D680F791FB1
:1048C0008A1F911DA11D6A0F711D811D911DA11DC2
:1048D00020D009F468943F912AE0269F11243019D2
:1048E000305D3193DEF6CF010895462F4770405D6D
:1048F0004193B3E00FD0C9F7F6CF462F4F70405D1C
:104900004A3318F0495D31FD4052419302D0A9F776
:10491000EACFB4E0A6959795879577956795BA9570
:10492000C9F700976105710508959B01AC010A2E36
:1049300006945795479537952795BA95C9F7620F0D
:0E494000731F841F951FA01D0895F894FFCFCC
:10494E000000CF092000F6FF00000000000000006C
:10495E00DB0FC93F030300000006431B7E223E000F
:10496E00000000000000000000FFFFFFFF05000038
:10497E00803F72656365697665642025752062796E
:10498E0074657300537769746368696E6720667225
:10499E006F6D207365676D656E7420256920746F69
:0449AE002025690057
:00000001FF
