:100000000C9441010C9461010C9461010C94610108
:100010000C9461010C9461010C9461010C946101D8
:100020000C9461010C942D030C9461010C946101FA
:100030000C9461010C9461010C9461010C946101B8
:100040000C9461010C9461010C9461010C946101A8
:100050000C9461010C9461010C9461010C94610198
:100060000C9461010C9461010C9461010C94610188
:100070000C9461010C94D5010C9461010C94610104
:100080000C9461010C9461010C9461010C94610168
:100090000C9499010C94B8010C9461010C946101C9
:1000A0000C9461010C9461010C9461010C94610148
:1000B0000C9461010C9461010C9461010C94630136
:1000C0000C9461010C9461010C9461010C94610128
:1000D0000C9461010C9461010C9461010C94610118
:1000E0000C946101F304F704FB04FF040305EF041F
:1000F000DA04EF0EF50EED0EE10EE70EE10EE70E5F
:10010000F70E084AD73B3BCE016E84BCBFFDC12F22
:100110003D6C74319ABD56833DDA3D00C77F11BEF8
:10012000D9E4BB4C3E916BAAAABE000000803F05FB
:10013000A84CCDB2D44EB93836A9020C50B991862C
:1001400088083CA6AAAA2ABE000000803F00426F91
:100150006F74656400556E61626C6520746F206C0D
:100160006F63617465207365676D656E7420666F7B
:1001700072206C6F6F6B616865616420706F696E6F
:100180007400456E64206F6620706174682072652B
:10019000616368656400556E61626C6520746F20F0
:1001A0006C6F63617465207365676D656E7420663E
:1001B0006F72206F7274686F676F6E616C207072FF
:1001C0006F6A656374696F6E00466F6C6C6F7765FC
:1001D0007220706172616D657465727320736574ED
:1001E00000466F6C6C6F7765722072657365740082
:1001F000466F6C6C6F776572207061757365640013
:10020000466F6C6C6F77657220737461727465648D
:10021000004E6F207061746820617661696C616264
:100220006C650050617468206F6620257520706FC2
:10023000696E74732C20312E2825692C256929209C
:10024000322E2825692C256929202E2E2E00466F56
:100250006C6C6F7765723A206F7574206F66206DD5
:10026000656D6F7279206F722070617468206861AB
:100270007320746F6F2066657720706F696E74737A
:10028000000011241FBECFEFD1E2DEBFCDBF1EBAEA
:1002900012E0A0E0B2E0E0E2FEE400E00BBF02C04A
:1002A00007900D92A037B107D9F729E0A0E7B2E097
:1002B00001C01D92A53EB207E1F70E9454050C94BF
:1002C0000E270C94FC0E2F922FB6CF93DF93EF9353
:1002D000FF93FF27C0919F02D091A0022196C09367
:1002E0009F02D093A002C091A102D091A202CF1F81
:1002F000DF1FC093A102D093A202F09904C0F09A2C
:10030000E5E3F2E003C0F098E3E3F2E0C081D181DD
:100310002296D183C083C0FD05C0F29B03C0EFECE1
:10032000E0937A00FF91EF91DF91CF912FBE2F9054
:1003300018952F922FB62F93EF93FF932091CE0015
:10034000E091A302E395EF77F091A402FE1761F02C
:10035000E093A302F0E0E957F84F2083FF91EF917B
:100360002F912FBE2F90189521E02093A702F6CF52
:100370002F922FB6EF93FF93F091A502E091A60282
:10038000FE1779F0E395EF7FE093A602F0E0E95FD6
:10039000F74FE081E093CE00FF91EF912FBE2F90B9
:1003A0001895E8E9E093C900F7CF2F922FB67F9315
:1003B0008F939F93CF93DF93EF93FF93C0910709A0
:1003C000D0910809FE01E85BFF4F89E0E13EF807A4
:1003D000B1F1818180937C00828180937B00F093D6
:1003E0000809E0930709E881E395EF71E883FF27A7
:1003F000EE0FFF1FEC0FFD1F708590917800908726
:10040000791B8185909179009187890B982F990F9D
:10041000990BEC81E71BEC83ED81E80BED83EE811A
:10042000E90BEE83EB81EF77EB83FF91EF91DF91A7
:10043000CF919F918F917F912FBE2F901895E9E0DA
:10044000F9E0C7CFEAE0F1E08081887F8083EBE0CC
:10045000F1E08081876080838091090187708093BB
:100460007202089580917202089580917002089539
:10047000CF9380910901C82FC77090917202C9175C
:10048000E9F080FD0AC020917002309171022F5F67
:100490003F4F309371022093700281FD0AC020917A
:1004A0007002309171022F5F3F4F309371022093A1
:1004B000700282FF07C088E00E94F80DC0937202AC
:1004C000CF9108958091700290917102019690935E
:1004D000710280937002EFCFCF92DF92EF92FF9282
:1004E0000E94FB0D813009F477C00E94E706FC01F1
:1004F000828181114BC00E948807FC01C480D58095
:10050000E680F7800E94F50DFC012481358146814B
:100510005781C701B6010E94FD1D6B017C010E943D
:10052000E706FC018281813009F441C00E94E706A0
:10053000FC0182818330D9F120E030E0A901C701BC
:10054000B6010E94DC1E87FF04C0F7FAF094F7F8AA
:10055000F094209127023091280240912902509175
:100560002A02C701B6010E94E61E23E333E343E1FA
:1005700050E40E94BB210E94581F709307026093B1
:100580000602FF90EF90DF90CF9008950E94E7065B
:10059000FC018281823009F4AECFC12CD12C7601CE
:1005A0000E94E706FC018281813009F0BFCF0E94E2
:1005B0008807FC01C080D180E280F3800E94F50DA5
:1005C000FC012081318142815381C701B6010E9423
:1005D000FD1D6B017C01B0CF8DECC82E8CE4D82EB4
:1005E0008DE7E82E83E4F82EB4CFEAE0F1E08081D5
:1005F000807F8083E8E6F0E0808181608083EBE6A5
:10060000F0E080818F60808383B18F708093770268
:1006100008958091730290917402089580917502FB
:10062000909176020895FC019FB7F894209173028F
:1006300030917402318320832091750230917602CB
:10064000FB01318320831092740210927302109286
:100650007602109275029FBF08951F920F920FB6F7
:100660000F9211240BB60F922F933F934F935F93EA
:100670006F937F938F939F93AF93BF93CF93DF93AA
:10068000EF93FF93C3B1DC2FDF70809177028D274A
:1006900080FF80C02091750230917602C0FFFBC0C0
:1006A000C1FF2BC12150310930937602209375028E
:1006B00081FDFBC082FF80C02091730230917402E3
:1006C000C2FFFAC0C3FFFAC02F5F3F4F30937402DE
:1006D0002093730283FF06C02150310930937402C6
:1006E000209373020E94FB0D813009F47AC00E94AE
:1006F000FB0D823009F475C00E94FB0D843061F05F
:100700000E94FB0D853041F00E94FB0D863021F0E8
:100710000E94FB0D873039F5809106029091070207
:10072000863F2FEF920709F4FDC0209177022D2715
:1007300020FF05C00197909307028093060221FFD6
:1007400005C00197909307028093060222FF05C01F
:100750000197909307028093060223FD7DC018162F
:1007600019060CF082C0D0937702FF91EF91DF91D0
:10077000CF91BF91AF919F918F917F916F915F9139
:100780004F913F912F910F900BBE0F900FBE0F9086
:100790001F90189581FF8ECF2091750230917602BF
:1007A000C1FDBDC0C0FF81C0215031093093760228
:1007B0002093750282FD80CF83FF94CF2091730236
:1007C00030917402C3FF90C0C2FD86CF2F5F3F4FB0
:1007D00030937402209373020E94FB0D813009F064
:1007E00086CF2091060230910702263F8FEF38070F
:1007F00009F49FC0809177028D2780FF45C0C0FD1E
:1008000070C0C1FD02C081FF06C021503109309384
:1008100007022093060282FF5AC0C2FD5FC0C3FFD9
:1008200002C083FF06C02150310930930702209394
:100830000602121613060CF45FCF86EF9FEF90931B
:100840000702809306020E94FB0D823009F482C0E9
:1008500087E00E94F80D50CF019790930702809394
:100860000602181619060CF47ECF86EF9FEF9093C0
:100870000702809306020E94FB0D873009F466C0D0
:1008800087E00E94F80D6FCF81FFC5CFC1FF58C030
:10089000C0FDBBCFC0CFC1FD39C02150310930935D
:1008A00076022093750281FF05CF2F5F3F4F309373
:1008B000760220937502FECEC3FF06CF2150310988
:1008C000309374022093730283FF0CCF7FCF83FF9A
:1008D000B0CFC3FF38C0C2FFA6CFABCFC3FFA1CFFD
:1008E000A2CFC1FD90CF91CFC2FFF6CE2F5F3F4F79
:1008F00030937402209373026FCF2F5F3F4F30937A
:1009000076022093750281FFD5CE4ECF2F5F3F4FE9
:10091000309376022093750281FD46CFCBCEC0FD89
:10092000C4CF42CF0E946C028091060290910702D0
:10093000FCCE0E946C0220910602309107025ACF31
:10094000C0FD69CF62CFC2FF74CF6DCF82E00E943D
:10095000F80D09CF88E00E94F80DCECE88E792E02E
:1009600008950C946D0C0C94790C8F929F92AF9219
:10097000BF92CF92DF92EF92FF920F931F93CF938C
:10098000DF93CDB7DEB76D970FB6F894DEBF0FBE1D
:10099000CDBF8C01CE0145960E94360FD801EC9157
:1009A0008E2F90E08730910538F4FC01EE58FF4F10
:1009B0000C9495220E94B6086D960FB6F894DEBF8F
:1009C0000FBECDBFDF91CF911F910F91FF90EF90A0
:1009D000DF90CF90BF90AF909F908F90089581E06F
:1009E0000E94F80DE9CF88E00E94F80DE5CF86E07F
:1009F0000E94F80DE1CF84E00E94F80DDDCF85E084
:100A00000E94F80DD9CFCE0101960E94640C698135
:100A10007A818B819C81CD80DE80EF80F8849E017D
:100A2000235F3F4F3D8F2C8F22E02B8F0E94581F5A
:100A30004B015C017E876D872DEC3CE44DEF52E469
:100A4000C701B6010E94FD1D0E94581F788B6F8759
:100A50009A8A898A2DEC3CE44DE753E4C701B6013C
:100A60000E94FE1D2DEC3CE44DEF52E40E94FE1D61
:100A70000E94581F7C8B6B8BCE014B960E941C14DE
:100A800081E00E94221498CF7F936F938EE392E0CF
:100A90009F938F9383E08F930E940E120F900F907D
:100AA0000F900F900F900895CF93DF93CDB7DEB7DF
:100AB00066970FB6F894DEBF0FBECDBF8FEE809362
:100AC00064008FE38093650081B1806C81B90E94DE
:100AD00040100E948B1164E475E080E00E94931145
:100AE00065EB74E086E00E94931161EB74E082E0B4
:100AF0000E94931163EB74E085E00E9493110E94C1
:100B0000790F0E94140F81E00E9453100E9412146A
:100B10000E9422020E94F5020E940F0878948EE43F
:100B200091E09F938F9382E08F930E9448120F90E1
:100B30000F900F9010E423C0F09905C0809133020C
:100B40009091340204C08091350290913602209138
:100B50007E0230917F02AC01421B530B483C510591
:100B600060F090937F0280937E020E94FA1D40E124
:100B700050E0BC0184E00E949C110E9482120E94FD
:100B800038020E94D30EF09905C0809133029091F3
:100B9000340204C0809135029091360220918A027D
:100BA00030918B02AC01421B530B9A01243F314020
:100BB00038F090938B0280938A0282B1812782B9A8
:100BC000F09905C0809133029091340204C0809165
:100BD0003502909136022091880230918902FC0101
:100BE000E21BF30B9F012C32314008F441C090937B
:100BF0008902809388020E94320289830E94350212
:100C00008A830E940E039C838B830E9409039E8328
:100C10008D8380E00E94B41098878F8381E00E94CA
:100C2000B4109A87898782E00E94B4109C878B87D2
:100C30001E861D86188A1F860E94E706FC01808199
:100C400090E09A8B898B0E94E706FC01618170E03D
:100C500080E090E00E948E1F6B8B7C8B8D8B9E8B37
:100C600046E150E0BE016F5F7F4F81E00E949C1122
:100C7000F09905C0809133029091340204C08091B4
:100C80003502909136022091860230918702AC01A4
:100C9000421B530B4431510570F0909387028093AF
:100CA00086020E94820C0E94F50D4CE050E0BC01CF
:100CB00082E00E949C11F09905C0809133029091CE
:100CC000340204C080913502909136022091840252
:100CD00030918502FC01E21BF30BE639F10568F067
:100CE0009093850280938402198241E050E0BE0116
:100CF0006F5F7F4F85E00E949C11F09905C0809145
:100D000033029091340204C08091350290913602F2
:100D10002091820230918302AC01421B530B463971
:100D20005105D0F090938302809382020E94760C4A
:100D30009A8389830E94E7067C0189819A810E94B7
:100D4000EA06C7010E948B0742E050E0BE016F5FD8
:100D50007F4F82E00E949C11F09905C08091330280
:100D60009091340204C08091350290913602209116
:100D7000800230918102FC01E21BF30B749708F4AE
:100D8000DBCE90938102809380020E94AE1C7C0196
:100D9000FC018081882309F4CFCE0E94F50D6C01FF
:100DA0000E944814882369F0B701675F7F4FC6012E
:100DB0000E94BC0B41E150E0B70183E00E949C110E
:100DC000BBCE0E94FD0F83E00E942214F3CF84E18A
:100DD00092E00895CF92DF92EF92FF92CF93DF934C
:100DE000EC0120E030E04AEF52E4688179818A81A9
:100DF0009B810E94FE1D2DEC3CE44DE753E40E94D4
:100E0000E61E0E94CB1F0E945F1F70E080E090E012
:100E10000E94901F20E030E040E450E40E94FE1D5C
:100E20000E945F1F6093140220E030E04AEF52E41A
:100E30006C817D818E819F810E94FE1D2DEC3CE4A2
:100E40004DE753E40E94E61E0E94CB1F0E945F1FE5
:100E500070E080E090E00E94901F20E030E040E4ED
:100E600050E40E94FE1D0E945F1F609315022BED4F
:100E70003FE049E45FE3688579858A859B850E9428
:100E8000FE1D6B017C012BED3FE049EC50E40E941C
:100E9000072187FD0AC02BED3FE049EC50E4C70174
:100EA000B6010E94FD1D6B017C012BED3FE049EC7A
:100EB0005FE3C701B6010E94E61E0E94CB1F9B01A3
:100EC000AC0160E070E080EA90E40E94FD1D6B01DF
:100ED0007C0120E030E040E850E40E94072187FDDB
:100EE0000AC020E030E040E850E4C701B6010E94AB
:100EF000FD1D6B017C01C701B6010E945F1F60935D
:100F00001602DF91CF91FF90EF90DF90CF90089580
:100F100088E092E00895CF93DF93EC01688170E060
:100F200080E090E00E948E1F20E030E040E450E43A
:100F30000E94FD1D2DEC3CE44DE753E40E94BB21D3
:100F400020E030E04AEF52E40E94FD1D6093080269
:100F50007093090280930A0290930B02698170E0FA
:100F600080E090E00E948E1F20E030E040E450E4FA
:100F70000E94FD1D2DEC3CE44DE753E40E94BB2193
:100F800020E030E04AEF52E40E94FD1D60930C0225
:100F900070930D0280930E0290930F028A8181302C
:100FA00089F081111AC08BED9FE0A9ECBFE380931B
:100FB000100290931102A0931202B0931302DF91DA
:100FC000CF91089510921002109211021092120205
:100FD00010921302DF91CF910895833079F48BED55
:100FE0009FE0A9E4B0E48093100290931102A093D3
:100FF0001202B0931302DF91CF9108958230F9F677
:1010000084EE9BECA6E9B0E4809310029093110269
:10101000A0931202B0931302DF91CF91089582E65C
:10102000E5E2F7E0DF011D928A95E9F7A1E2B7E07A
:1010300011968C911197E3E2F7E09C919350908385
:10104000835081830895882329F0823049F08330CA
:1010500021F0089584E00C94F80D86E00C94F80DCE
:1010600085E00C94F80DCF92DF92EF92FF920F93F0
:101070001F93CF93DF93E82EC0901402D0901502F7
:10108000809116028E0DCFEFC80FC43014F0CBEF55
:10109000C80FC7FD4BC06D2D8C2D0E94D61CF82E9D
:1010A000D82FDF7001E010E00C2E02C0000F111FDE
:1010B0000A94E2F78D2F90E08023912302C095954A
:1010C0008795CA95E2F7C1E08130910509F0C0E04B
:1010D000019711F10E94AE0421E0E21649F1E110FE
:1010E0002FC0FC016481758180E090E00E948E1F1A
:1010F00020E030E048E452E40E94DC1E87FF0CC090
:101100000D2B0F708F2D807FF82EF02A4F2D6D2D17
:101110008C2D0E944B1DC1E08C2FDF91CF911F9130
:101120000F91FF90EF90DF90CF900895CC5FB3CFF9
:10113000FC016081718180E090E00E948E1FD8CF19
:10114000F2E0EF12E9CFFC016281738180E090E070
:101150000E948E1FCDCF0E943308882311F080E0BB
:10116000089581E00E94F80D81E008950F931F9388
:10117000CF93DF9380911402811105C080911502F5
:10118000833009F4DBC0D0911602E09121078091F1
:10119000220797E0E902F0011124E80FF11D87FD15
:1011A000FA95EE0FFF1FEB5DF84F8081918101965C
:1011B0009183808380E00E943308C1E0082F0C27D0
:1011C00081E00E943308182F1C2782E00E94330818
:1011D000C827DD2309F46CC0D33009F0D4C0112333
:1011E00009F434C18091210790912207282F082EFD
:1011F000000C330B21503109F901EE0FFF1FEE0FE8
:10120000FF1FEE0FFF1FE21BF30BE90FF11D97FD10
:10121000FA95EE0FFF1FEB5DF84F408181508093F0
:10122000230790932407002309F401C1109121079B
:10123000612F012E000C770BD09122072D2F0D2E40
:10124000000C330BFB01EE0FFF1FEE0FFF1FEE0F25
:10125000FF1FDF01A61BB70BC9010197A80FB91F1C
:10126000AA0FBB1FAB5DB84F8D919C91A42FB0E02E
:101270008A179B070CF473C181E0CC2309F47BC06F
:1012800050E0E61BF70B2F5F3F4FE20FF31FEE0F0F
:10129000FF1FEB5DF84F20813181241735070CF0DB
:1012A0006AC010932307DF5FD093240782E063C0F6
:1012B000112309F466C09091210780912207E82F3D
:1012C000082E000CFF0B319627E09202E00DF11D75
:1012D0001124EE0FFF1FEB5DF84F20819093230741
:1012E0008F5F809324070023C1F190912107692F1C
:1012F000092E000C770BD09122074D2F0D2E000CDC
:10130000550BFB013197DF01AA0FBB1FAA0FBB1FB3
:10131000AA0FBB1FAE1BBF0BA40FB51FAA0FBB1F8D
:10132000AB5DB84FED91FC9130E0E217F3070CF4A0
:10133000ECC0CC2309F429C181E0C9C08091160218
:10134000813009F424C182E00E94230881E0DF910A
:10135000CF911F910F910C94AB08C111AAC011112C
:1013600014C1809122079091210790932307815007
:101370008093240783E0DF91CF911F910F910C940C
:1013800023082FE7B0CFD13009F003C1112309F4AE
:101390008EC08091210790912207282F082E000CE3
:1013A000330B2F5F3F4FF901EE0FFF1FEE0FFF1FB3
:1013B000EE0FFF1FE21BF30BE90FF11D97FDFA95EE
:1013C000EE0FFF1FEB5DF84F40818F5F8093230787
:1013D000909324070023E1F110912107612F012E42
:1013E000000C770BD09122072D2F0D2E000C330B04
:1013F000FB01EE0FFF1FEE0FFF1FEE0FFF1FDF01C0
:10140000A61BB70BC9010196A80FB91FAA0FBB1FD6
:10141000AB5DB84F8D919C91A42FB0E08A179B07CC
:101420000CF494C081E0CC2309F4A5CF28C0C111ED
:1014300078C01111AAC090912207809121078F5F77
:10144000809323079093240783E095CF4FE7EBCE5B
:10145000CC2309F48DC010912107612F012E000CBF
:10146000770BD09122072D2F0D2E000C330B81E02E
:10147000FB01EE0FFF1FEE0FFF1FEE0FFF1F50E0EF
:10148000E61BF70B21503109E20FF31FEE0FFF1F90
:10149000EB5DF84F20813181241735070CF06BCFBD
:1014A00010932307D150D093240782E064CF4FE7F5
:1014B00091CF90912107692F092E000C770BD091C5
:1014C00022074D2F0D2E000C550B81E030E06F5F91
:1014D0007F4FFB01EE0FFF1FEE0FFF1FEE0FFF1FF1
:1014E000E61BF70BE40FF51FEE0FFF1FEB5DF84F48
:1014F00040815181421753070CF03DCF9F5F90937D
:101500002307D093240782E036CF2E2F8FEF890F49
:1015100080932307D093240780E0CC2309F42BCFBA
:10152000D5CF10912107612F012E000C770BD091A0
:1015300022072D2F0D2E000C330B81E0FB01EE0F47
:10154000FF1FEE0FFF1FEE0FFF1F9ACE482F1093C5
:10155000230781E08D0F8093240780E064CF482F1C
:10156000109323078FEF8D0F8093240780E085CEA3
:1015700011110BC090912207809121078150809317
:1015800023079093240783E0F6CE81E0F4CE80E039
:10159000DBCED230D1F7112309F469C09091210735
:1015A00080912207E82F082E000CFF0B319727E0CF
:1015B0009202E00DF11D1124EE0FFF1FEB5DF84FBD
:1015C000608190932307815080932407002309F4BE
:1015D00050C090912107292F092E000C330BD09178
:1015E00022074D2F0D2E000C550BF9013196DF010E
:1015F000AA0FBB1FAA0FBB1FAA0FBB1FAE1BBF0B9F
:10160000A40FB51FAA0FBB1FAB5DB84FED91FC91A6
:10161000A62FB0E0EA17FB07E4F56E2F81E0890FF3
:1016200080932307D093240780E0CC2309F4A3CE32
:1016300070E021503109F901EE0FFF1FEE0FFF1F7F
:10164000EE0FFF1FE21BF30BE40FF51FEE0FFF1F62
:10165000EB5DF84F20813181261737070CF08BCED8
:10166000915090932307D093240782E084CE6FE7B4
:10167000ADCFCC2381F090912107292F092E000CAA
:10168000330BD09122074D2F0D2E000C550B81E00E
:10169000CFCF81E0CACF111178CF809122079091EE
:1016A0002107909323078F5F8093240783E063CE05
:1016B0008F929F92AF92BF92CF92DF92EF92FF9262
:1016C000CF93DF93EC017B01288139814A815B81D3
:1016D000FB0160817181828193810E94FD1D4B011C
:1016E0005C012C813D814E815F81F70164817581B0
:1016F000868197810E94FD1DA50194010E947D1E97
:10170000288539854A855B850E94FD1D6B017C011A
:101710002BED3FE049E450EC0E94DC1E87FD21C028
:101720002BED3FE049E450E4C701B6010E940721D8
:10173000181654F42BED3FE049EC50E4C701B60114
:101740000E94FD1D6B017C01C701B601DF91CF91A5
:10175000FF90EF90DF90CF90BF90AF909F908F90D1
:1017600008952BED3FE049EC50E4C701B6010E941B
:10177000FE1D6B017C01E8CF4F925F926F927F92CA
:101780008F929F92AF92BF92CF92DF92EF92FF9291
:101790000F931F93CF93DF930E94580B20E030E00C
:1017A00040E250E40E94BB212091230230912402A8
:1017B00040912502509126020E94BB2120E030E09A
:1017C00040E05FE30E94BB214B015C019B01AC0147
:1017D00060E070E088E492E40E94FD1D2B013C0172
:1017E0002CE731E648E951E40E94BB2120E030E8D3
:1017F00044E554E40E94FE1D0E94581F6B017C01C9
:101800008B0120E030E0A901C301B2010E94DC1E7F
:1018100087FD44C0E8010115104214F0CFEFDFE16D
:1018200020E030E048E452E4C501B4010E94FE1D0E
:101830004B015C012CE731E648E951E40E94BB21F1
:1018400020E030E844E554E40E94FE1D0E94581F49
:101850006B017C013B0120E030E0A901C501B4012E
:101860000E94DC1E87FD25C0B301611480E278066A
:1018700014F06FEF7FE1CE01DF91CF911F910F91B7
:10188000FF90EF90DF90CF90BF90AF909F908F90A0
:101890007F906F905F904F900C94C50FB601DD0C58
:1018A000880B990B0E94901F90580E94581F8B0123
:1018B000B1CFB601DD0C880B990B0E94901F905898
:1018C0000E94581F3B01D0CF2CE0E7E1F2E0DC01A1
:1018D00001900D922A95E1F70895FC0190E1A3E2B1
:1018E000B2E001900D929A95E1F708958CE892E0AC
:1018F0000895FC019CE0ACE8B2E001900D929A954D
:10190000E1F708954F925F926F927F928F929F922C
:10191000AF92BF92CF92DF92EF92FF92CF93DF937D
:10192000CDB7DEB728970FB6F894DEBF0FBECDBF98
:10193000BE016F5F7F4FCE0103960E941303E980C3
:10194000FA80CB80DC80B7016C197D0909F418C1DD
:10195000072E000C880B990B0E94901F2B013C0155
:101960008091230290912402A0912502B091260239
:101970008D839E83AF83B887B7016C0D7D1D072EC5
:10198000000C880B990B0E94901FA30192010E94EA
:10199000E61E6B017C0120E030E040E05FE36D81FA
:1019A0007E818F8198850E94BB219B01AC01C7017C
:1019B000B6010E94BB214B015C01C0901F02D09078
:1019C0002002E0902102F090220220912702309123
:1019D00028024091290250912A02C301B2010E94BB
:1019E000BB212D813E814F8158850E94E61EA701B3
:1019F00096010E94FE1D562E672E782E492E0E94BB
:101A000028226D837E838F839887C701B6010E9449
:101A100028229B01AC016D817E818F8198850E9477
:101A2000FD1DA50194010E94BB216D837E838F83E0
:101A30009887C701B6010E94E11E6B017C01652DEC
:101A4000762D872D942D0E94E11E9B01AC01C701CC
:101A5000B6010E94FD1DA50194010E94BB216B01EE
:101A60007C012BED3FE049EC50E4652D762D872D70
:101A7000942D0E94072118160CF468C0852D962D10
:101A8000A72DB42D80931F0290932002A0932102D2
:101A9000B093220220E030E0A901652D762D872D3C
:101AA000942D0E94DC1E87FF12C02BED3FE049EC15
:101AB00050E4652D762D872D942D0E94FE1D609398
:101AC0001F027093200280932102909322022D81A5
:101AD0003E814F8158856091170270911802809164
:101AE000190290911A020E94FE1D609317027093D2
:101AF00018028093190290931A02A701960160912F
:101B00001B0270911C0280911D0290911E020E9486
:101B1000FE1D60931B0270931C0280931D02909324
:101B20001E0228960FB6F894DEBF0FBECDBFDF9120
:101B3000CF91FF90EF90DF90CF90BF90AF909F90AC
:101B40008F907F906F905F904F9008952BED3FE0C6
:101B500049EC50E4652D762D872D942D0E94FD1DB6
:101B6000562E672E462F572FBC0140931F025093CD
:101B700020026093210270932202782E492E8ACF90
:101B8000B701FF0C880B990B0E94901F2091270230
:101B9000309128024091290250912A020E94BB21D3
:101BA0006B017C0180901F0290902002A090210286
:101BB000B0902202C501B4010E94E11E9B01AC015C
:101BC000C701B6010E94BB216D837E838F839887F6
:101BD000C501B4010E9428229B01AC01C701B601D6
:101BE0000E94BB216B017C0172CF87E192E00895D6
:101BF00080939E02089580919E020895CF92DF9275
:101C0000EF92FF920E94E706FC0182818823C9F0CF
:101C10000E94E706FC018281813099F10E94E7066B
:101C2000FC018281823009F46DC00E94E706FC014C
:101C30008281833009F448C0FF90EF90DF90CF900D
:101C400008950E948807FC01C480D580E680F78053
:101C50000E94F50DFC012481358146815781C70121
:101C6000B6010E94DC1E87FF28C062EC7BE088EB97
:101C70009BE00E94C50F0E94E706FC018281813033
:101C800069F60E948807FC01C080D180E280F38061
:101C90000E94F50DFC012081318142815381C701F1
:101CA000B6010E94072118160CF04CC062EC7BE0D4
:101CB00088EB9BE00E94C50FB1CF6EE374EF88E420
:101CC00094EF0E94C50FA4CF0E948807FC01C0803A
:101CD000D180E280F3800E94F50DFC0120813181EA
:101CE00042815381C701B6010E94DC1E87FD25C0D9
:101CF0006EE374EF88E494EFFF90EF90DF90CF9065
:101D00000C94C50F0E948807FC01C480D580E68032
:101D1000F7800E94F50DFC012481358146815781B1
:101D2000C701B6010E94072118169CF462EC7BE003
:101D300088EB9BE00E94C50F78CF62EC7BE088EBDC
:101D40009BE0DACF6EE374EF88E494EF0E94C50F56
:101D500065CF6EE374EF88E494EF0E94C50F65CF02
:101D6000CF93DF9300D000D000D0CDB7DEB7CE0147
:101D700001960E94360FBE016F5F7F4F88E992E0A7
:101D80000E944D0F613975408041910518F088E03F
:101D900080939E0226960FB6F894DEBF0FBECDBF8D
:101DA000DF91CF910895E0919E028E2F90E0FC018B
:101DB0003197E830F10508F00895E758FF4F0C948B
:101DC000952268EB7BE088E494EF0C94C50F68E4FF
:101DD00074EF88EB9BE00C94C50F0C94B00E62EC92
:101DE0007BE088EB9BE00C94C50F0C94FE0D0E94E9
:101DF000FD0F10929E0208951F920F920FB60F9240
:101E00001124179A169890E42FEF30E782E02150C2
:101E100030408040E1F700C0000082B1805882B9B4
:101E200082B1892782B9F0CFF1990895F19A809112
:101E300065008F7D80936500109221018FB7F89423
:101E4000109225011092240128EE33E030932901ED
:101E5000209328018FBF109222011092200182E06E
:101E6000809373008AE0809321010895EFB7F8947E
:101E7000209124013091250140919F025091A002B0
:101E80006091A1027091A202EFBFFC0140835183D7
:101E9000628373833583248308950F931F93CF93B5
:101EA000DF93FC01EB01488159816A817B8180814C
:101EB0009181A281B3819A01AB01281B390B4A0B96
:101EC0005B0BA8EEB3E00E949E224C815D812481D1
:101ED0003581FA01E21BF30B8F01FF0F220B330B4D
:101EE000600F711F821F931FDF91CF911F910F9180
:101EF0000895CF93DF93E5E6F0E08081877E8083CD
:101F0000A1E9B0E01C92E1EAF0E0108282EF809358
:101F100090008093A000109292001092A2002FB720
:101F2000F89410929500109294001092A5001092CF
:101F3000A4008FEF9FE19093970080939600909379
:101F4000A7008093A60090939900809398009093A7
:101F50009B0080939A009093A9008093A80090938F
:101F6000AB008093AA008DB188618DB9C1E0D1E04A
:101F700088818861888381E883BD81E18C93808337
:101F800013BC2FBFDF91CF91089597FD18C09F71AB
:101F90000FB6F894109299001092980090939B00BD
:101FA00080939A0077FD1BC07F711092A900109258
:101FB000A8007093AB006093AA000FBE089591959E
:101FC000819591099F710FB6F89410929B00109221
:101FD0009A00909399008093980077FFE5CF7195D0
:101FE000619571097F711092AB001092AA007093F5
:101FF000A9006093A8000FBE08952FB7F8948FEF43
:102000009FE1909399008093980090939B00809318
:102010009A009093A9008093A8009093AB008093BE
:10202000AA002FBF08952091A5022F5F9091A602CC
:102030002917E1F3E22FF0E0E95FF74F8083209367
:10204000A50288EB8093C90008959091A302809126
:10205000A4029817D1F39091A4029F5F9F77E92F74
:10206000F0E0E957F84F80819093A4020895209101
:10207000A3029091A40281E02913089580E00895BD
:10208000E5E6F0E080818E7F80831092CD00109293
:10209000CC0080E48093C80088E98093C90086E082
:1020A0008093CA000895CF93DF93882339F09FB7B8
:1020B000F89485B7806885BF85BF9FBF8091640015
:1020C0008E7F8093640010927A0080B7806880BF12
:1020D000E9E0F9E088EDDF011D928A95E9F7F093D8
:1020E0000809E09307098FE080930C098EE0809344
:1020F00054098DE080939C09A1EEB9E08FE030E0B7
:1021000040E061E070E058E0982F9F709383982F33
:102110009770292F20642183EB0102C0CC0FDD1FB3
:102120009A95E2F783FF09C03C2B5283E85BFF4F8F
:10213000AE17BF0741F08381E7CF4C2BE85BFF4F21
:10214000AE17BF07C1F740937E0030937D008091AA
:102150000A0980937C0080910B0980937B00F29A9E
:10216000DF91CF910C94140F28E4829FC0011124B9
:10217000FC01E75FF64F2FB7F89484819581A68123
:10218000B7812FBF25E0B695A795979587952A9596
:10219000D1F70895EF92FF920F931F93CF93DF93A0
:1021A0000091A902C091AB02D091AC02CE0183553F
:1021B0009D4F7C011091AA0209C09FEFE91AF90A0C
:1021C000082710E00E943710882301F10E94251093
:1021D000111104C0813151F18B3251F1F70180832B
:1021E0002196C115F4E0DF0741F78091A8028160D4
:1021F0008093A80210E08DEAE82E82E0F82EC0E07D
:10220000D0E000E00E9437108111E0CF0093A902D6
:10221000D093AC02C093AB0211701093AA02DF916D
:10222000CF911F910F91FF90EF90089511E0CACFC9
:10223000C430D105F0F09091AD028091AE028927B3
:10224000982F92959F708F708927E091AF029E2FF3
:1022500092959F708917D1F08091A8028460809335
:10226000A8022DEAE22E22E0F22EC0E0D0E000E04B
:10227000A9CF8091A80282608093A8029DEAE92EEE
:1022800092E0F92EC0E0D0E000E09CCF6091AD027A
:102290007091AE0224976C177D0769F08091A802B7
:1022A00088608093A8023DEAE32E32E0F32EC0E07E
:1022B000D0E000E087CF011115C0EF70F0E0EE0F25
:1022C000FF1FE355F94F0190F081E02D3097B9F0F1
:1022D00080EB92E009956DEAE62E62E0F62EC0E012
:1022E000D0E070CF8091A80280618093A8024DEA6F
:1022F000E42E42E0F42EC0E0D0E000E063CF809115
:10230000A80280628093A8025DEAE52E52E0F52ED5
:10231000C0E0D0E057CF80E2EDEAF6E0DF011D92A9
:102320008A95E9F70895E82FF0E0EE0FFF1FE355D7
:10233000F94F718360830895CF92DF92EF92FF92FD
:102340000F931F93CF93DF93C82F6B017A01413115
:1023500009F460C04B3209F45DC08E2D0E94131049
:102360008F2D813109F452C08B3209F44FC08F2D6B
:102370000E9413101F2D1E2520E1129FC001112461
:10238000D12FD07FD827CF70DC2BD131D9F1DB32E0
:10239000C9F18D2F0E941310D127E114F104E1F04F
:1023A0008601EC0CFD1C07C08C2F0E941310DC274B
:1023B0000E151F0589F0F801C1918F01C13111F08F
:1023C000CB3291F781E10E9413108C2F0E941310E1
:1023D000DC270E151F0579F7D13181F0DB3271F062
:1023E0008D2F0E9413108BE2DF91CF911F910F91DF
:1023F000FF90EF90DF90CF900C94131081E10E943A
:102400001310EECF81E10E941310C3CF81E10E942F
:102410001310ADCF81E10E9413109FCF0F931F9334
:10242000CF93DF93CDB7DEB782E091E00E94B82270
:102430008C01009719F12F81FC012193CF019E019E
:10244000265F3F4F4885598561E071E00E94E22395
:102450008130F1E09F0774F041E051E0B80180E085
:102460000E949C11C8010E945023DF91CF911F91BF
:102470000F910895AC014F5F5F4FF0CF8091A8029C
:1024800080648093A802DF91CF911F910F910895EE
:102490000F931F93CF93DF93CDB7DEB782E091E028
:1024A0000E94B8228C01009719F12F81FC01219321
:1024B000CF019E01265F3F4F4885598561E071E05D
:1024C0000E941B248130F1E09F0774F041E051E04D
:1024D000B80180E00E949C11C8010E945023DF9146
:1024E000CF911F910F910895AC014F5F5F4FF0CFD7
:1024F0008091A80280648093A802DF91CF911F9100
:102500000F9108950E943710811101C008950C9415
:10251000CA10CF92DF92EF92FF92CF93DF93EC013C
:10252000C880D980EA80FB8020E030E0A901C701A3
:10253000B6010E940721181644F4C0923A02D092C4
:102540003B02E0923C02F0923D028C818093390282
:1025500089EC91E09F938F9382E08F930E944812C1
:102560000F900F900F90DF91CF91FF90EF90DF9041
:10257000CF9008952F923F924F925F926F927F92E9
:102580008F929F92AF92BF92CF92DF92EF92FF9283
:102590000F931F93CF93DF93823008F4AAC05B019F
:1025A000D82F1092F6068FEF9FEF9093380280930A
:1025B00037021092F506109200071092FB06109257
:1025C000FC061092FD061092FE061092FF06809106
:1025D000F7069091F806009711F00E9450230D2FF6
:1025E00010E078018FEFE81AF80AEE0CFF1CEE0CF1
:1025F000FF1CC7010E94B8226C019093F8068093DB
:10260000F706009709F475C0A701B5010E94D92308
:10261000D093F6060250104C000F111F000F111F2F
:10262000E601C00FD11F0C811D812E803F80888163
:102630009981B801681B790B072E000C880B990B48
:102640000E94901F2B013C018A819B81B101681B74
:10265000790B072E000C880B990B0E94901F6B01C1
:102660007C019B01AC01C301B2010E941A214B0104
:102670005C0120E030E040E251E460913A02709168
:102680003B0280913C0290913D020E94BB21A5013A
:1026900094010E94E61E4B015C019B01AC01C30149
:1026A000B2010E94BB210E94581F600F711F7987E1
:1026B0006887A5019401C701B6010E94BB210E9451
:1026C000581F620D731D7B876A8781E0DF91CF9170
:1026D0001F910F91FF90EF90DF90CF90BF90AF9040
:1026E0009F908F907F906F905F904F903F902F9032
:1026F000089580E0EBCFCF93DF93EC0188818823AE
:10270000A1F0813009F462C0823009F452C08330F4
:1027100009F471C0E091F906F091FA063097E9F0FA
:1027200069818881DF91CF910994BE016E5F7F4FEF
:1027300089810E94BA12811113C08EE492E09F93A6
:102740008F931F920E9448120F900F900F90E0916C
:10275000F906F091FA06309719F7DF91CF910895B5
:10276000E091F706F091F80687818F9386818F9329
:1027700085818F9384818F9383818F9382818F93BF
:1027800081818F9380818F938091F6061F928F9322
:1027900083E292E09F938F9382E08F930E9448128E
:1027A0008DB79EB70D960FB6F8949EBF0FBE8DBF26
:1027B000B1CF1092000720EF31E03F932F938F931A
:1027C0000E9448120F900F900F90A4CF9091F606A0
:1027D000911103C081E192E0B2CF8093000780E0C5
:1027E00092E09F938F9382E08F930E9448120F9004
:1027F0000F900F908FCF8FEF9FEF909338028093C1
:1028000037021092F506109200071092FB06109204
:10281000FC061092FD061092FE061092FF0681EE55
:1028200091E0DFCF6BE773E183E00E94931169E8E9
:1028300072E184E00C949311FC01618172818081CA
:102840000C94BA12823009F1833051F0813009F0D2
:1028500008959091F6069923D9F38093000708957F
:102860008FEF9FEF90933802809337021092F50616
:10287000109200071092FB061092FC061092FD06C3
:102880001092FE061092FF06089510920007089518
:102890002F923F924F925F926F927F928F929F9270
:1028A000AF92BF92CF92DF92EF92FF920F931F935E
:1028B000CF93DF93CDB7DEB7ED970FB6F894DEBFB9
:1028C0000FBECDBF2091000729AB222309F439C2E6
:1028D000FC0180819181A281B3818F8F98A3A9A3EC
:1028E000BAA324813581468157812BA33CA34DA3F4
:1028F0005EA38091F506882309F43DC24090E90665
:102900005090EA066090EB067090EC068091DD0630
:102910009091DE06A091DF06B091E0068B8B9C8B38
:10292000AD8BBE8B2091D9063091DA064091DB0643
:102930005091DC062F87388B498B5A8B8091D506B6
:102940009091D606A091D706B091D8068F8B988F1C
:10295000A98FBA8F0091010710910207A090030779
:10296000B09004072091F1063091F2064091F306F1
:102970005091F40629833A834B835C838091ED0662
:102980009091EE06A091EF06B091F0068D839E83A4
:10299000AF83B887A0913702B0913802B8ABAFA728
:1029A0009D012F5F3F4FE091F706F091F806FE87FB
:1029B000ED87C9010196AC01440F551F440F551F07
:1029C00058A74FA31901C090E106D090E20680916C
:1029D000E3069091E4069BAF8AAFB801110F880B14
:1029E000990B0E94901F9B01AC016F8D78A189A16A
:1029F0009AA10E94FD1D69877A878B879C87B50104
:102A0000BB0C880B990B0E94901F9B01AC016BA122
:102A10007CA18DA19EA10E94FD1D4B015C0129811D
:102A20003A814B815C810E94BB217B018C0129850D
:102A30003A854B855C856D817E818F8198850E946A
:102A4000E21FA30192010E94E61E6BA77CA78DA73F
:102A50009EA72B013C0177FA709477F87094E98473
:102A6000FA840B851C85A30192016D817E818F8183
:102A700098850E94E21F0E9476226B8F7C8F8D8F3B
:102A80009E8F85017401A301920169817A818B81F6
:102A90009C810E94E21F0E9476229B01AC016B8DFB
:102AA0007C8D8D8D9E8D0E94FE1D6AAB7BAB8CABA9
:102AB0009DAB2D813E814F81588569857A858B85B7
:102AC0009C850E94FD1D2B013C0129813A814B818F
:102AD0005C81C501B4010E94FD1D4B015C012B8985
:102AE0003C894D895E890E94BB217B018C01A30139
:102AF00092016F85788989899A890E94E21F2F89BE
:102B0000388D498D5A8D0E94E61E6EAB7FAB88AF23
:102B100099AF20E030E0A9010E94072187FDFEC5A2
:102B200020E030E040E85FE36EA97FA988AD99AD71
:102B30000E94DC1E18160CF0F6C5EFA5F8A9FAA73E
:102B4000E9A7AD85BE85EFA1F8A5AE0FBF1FF09137
:102B50003902FB8F2091F6062FA3422F50E0588FA9
:102B60004F8B1982BDAFACAF0AAD1BAD04C0CD8495
:102B7000DE8409851A85F981FF5FF9832B8DF217B1
:102B800008F028C23FEF231A330A4F89588D2416C4
:102B900035060CF01FC28CAD9DAD04969DAF8CAF79
:102BA000DC010D90BC91A02DBE87AD87FC01028099
:102BB000F381E02DFA87E987BD016C197D09072EA5
:102BC000000C880B990B0E94901F4B015C016985DA
:102BD0007A85601B710B072E000C880B990B0E94E5
:102BE000901F6D837E838F839887B601DD0C880BE1
:102BF000990B0E94901F9B01AC016F8D78A189A158
:102C00009AA10E94FD1D6F87788B898B9A8BB801E2
:102C1000110F880B990B0E94901F9B01AC016BA1B7
:102C20007CA18DA19EA10E94FD1D6B8B7C8B8D8B49
:102C30009E8B9B01AC016D817E818F8198850E9466
:102C4000BB217B018C012F85388949895A89C501AF
:102C5000B4010E94E21F6B017C01C501B4010E9416
:102C600076222B013C016D817E818F8198850E94A7
:102C700076229B01AC01C301B2010E94FE1D9B01A3
:102C8000AC01C701B6010E94E61E2B013C0120E009
:102C900030E0A9010E94072187FD69CF20E030E0E4
:102CA00040E85FE3C301B2010E94DC1E18160CF479
:102CB0005ECF77FA709477F87094EF84F88809897A
:102CC0001A89A3019201C501B4010E94E21F0E946A
:102CD00076224B015C01EB88FC880D891E89A301DB
:102CE00092016D817E818F8198850E94E21F0E94F2
:102CF00076229B01AC01C501B4010E94FE1D7B013F
:102D00008C019B01AC016AA97BA98CA99DA90E9499
:102D1000072118160CF02BCF3AA629A6EAAAFBAA7F
:102D20000CAB1DAB24CF1092000782E891E09F937B
:102D30008F9382E08F930E9448120F900F900F9014
:102D400019AA89A9ED960FB6F894DEBF0FBECDBFC4
:102D5000DF91CF911F910F91FF90EF90DF90CF9077
:102D6000BF90AF909F908F907F906F905F904F90AB
:102D70003F902F90089581E08093F506A091F7068B
:102D8000B091F806BE87AD878D919D910D90BC9155
:102D9000A02D8093050790930607A0930707B09393
:102DA00008078F87988BEF85F889BF01FF0F880B85
:102DB000990B0E94901F2F8D38A149A15AA10E9402
:102DC000FD1D6D837E838F8398876093ED067093DE
:102DD000EE068093EF069093F006809007079090A0
:102DE0000807B401092C000C880B990B0E94901F56
:102DF0002BA13CA14DA15EA10E94FD1D69837A8398
:102E00008B839C836093F1067093F2068093F306A4
:102E10009093F4066D817E818F8198850E94762241
:102E20006B017C0169817A818B819C810E94762271
:102E3000A70196010E94FE1D2B013C016093E9064B
:102E40007093EA068093EB069093EC062AE037ED48
:102E500043E25CE30E94DC1EED85FE8587FD73C3C3
:102E600084819581A681B7818093E1069093E206E3
:102E7000A093E306B093E4066F8D78A189A19AA18F
:102E80000E94581F8B0170930207609301076BA18A
:102E90007CA18DA19EA10E94581F5B017093040725
:102EA00060930307209137023091380238AB2FA787
:102EB00019013FEF231A330AC1010196AC01440FF7
:102EC000551F440F551F58A74FA38091E1069091BD
:102ED000E2069A878987BC01AF85B8896A1B7B0B9C
:102EE000072E000C880B990B0E94901F6F87788B20
:102EF000898B9A8B6093D9067093DA068093DB06F0
:102F00009093DC06E091E306F091E406FBAFEAAFB4
:102F1000BF0168197909072E000C880B990B0E94D4
:102F2000901F6B8B7C8B8D8B9E8B6093DD067093DB
:102F3000DE068093DF069093E0066F8578898989A5
:102F40009A890E9476226B017C016B897C898D892C
:102F50009E890E9476229B01AC01C701B6010E94A6
:102F6000FE1D6F8B788F898F9A8F6093D506709333
:102F7000D6068093D7069093D8060E943622609397
:102F8000D1067093D2068093D3069093D406C301E2
:102F9000B2010E9436229B01AC016093E50670935A
:102FA000E6068093E7069093E80660913A027091F6
:102FB0003B0280913C0290913D020E94E61E60938C
:102FC000CD067093CE068093CF069093D006C98429
:102FD000DA8403CD89A59AA5AF89B88D8A179B0796
:102FE00009F43CC449A55AA58FA598A9841795074B
:102FF0000CF411C1C090CD06D090CE06E090CF0663
:10300000F090D0068F89988D0297EFA5F8A98E17BA
:103010009F0709F476C220E030E040E85FE36BA54B
:103020007CA58DA59EA50E940721181644F420E0DA
:1030300030E040E85FE32BA73CA74DA75EA7A701C0
:1030400096016BA57CA58DA59EA50E94FE1D4B013A
:103050005C0120E030E040E85FE30E94DC1E1816CF
:103060000CF030C420E030E040E85FE3C501B4017B
:103070000E94FD1D2091E5063091E6064091E7068D
:103080005091E8060E94BB216B017C018090D10623
:103090009090D206A090D306B090D406A5019401DA
:1030A0000E94DC1EA501940118160CF08EC3C70106
:1030B000B6010E94FD1D6B017C010091E10610919B
:1030C000E2062090E3063090E4068FA48394912CCE
:1030D0003FEF831A930A880C991C880C991C8091E5
:1030E000F7069091F806880E991E4FA54E5F49830A
:1030F0005FA1451788F080C0C701B6010E94FD1D81
:103100006B017C01F981FF5FF98315010D851E8537
:103110002FA1F21708F070C084E0880E911CD40132
:103120000D90BC91A02DBE87AD87F401A280B38025
:10313000BD01601B710B072E000C880B990B0E94C0
:10314000901F6D837E838F839887B5016219730901
:10315000072E000C880B990B0E94901F69877A87B5
:103160008B879C879B01AC016D817E818F819885C7
:103170000E941A212B013C01A70196010E94072100
:10318000A301920187FDB8CFC701B6010E94E61ED8
:103190004B015C01B801110F880B990B0E94901F25
:1031A0007B018C01A50194016D817E818F819885C1
:1031B0000E94E21F2B013C01B101330C880B990BDB
:1031C0000E94901F7B018C01A501940169857A857D
:1031D0008B859C850E94E21F4092090750920A0746
:1031E00060920B0770920C0760930D0770930E07A7
:1031F00080930F079093100739814FA13413A1CD0D
:1032000085E591E09F938F931F920E9448120F9043
:103210000F900F9096CD8F89988D0197A9A5BAA58B
:10322000A817B90709F47FCDBAA5BF93E9A5EF9315
:10323000F8A9FF932FA52F9380E592E09F938F939A
:1032400082E08F930E940E12E091F706F091F8064B
:1032500089A59AA5880F991F880F991FE80FF91F54
:10326000809137029091380201960FB6F894DEBF34
:103270000FBECDBFA9A5BAA5A817B90709F4EBC120
:10328000AF014C5F5F4F5E834D8380819181A2814E
:10329000B3818093010790930207A0930307B09333
:1032A000040784819581A681B78180930507909357
:1032B0000607A0930707B0930807282E392E009120
:1032C000010710910207B101601B710B072E000C62
:1032D000880B990B0E94901F2B013C016093ED0617
:1032E0007093EE068093EF069093F00680910707A7
:1032F000909108079A878987A0910307B0910407E6
:10330000BA83A983BC016A1B7B0B072E000C880BB8
:10331000990B0E94901F6B017C016093F1067093E2
:10332000F2068093F3069093F406C301B2010E9463
:1033300076224B015C01C701B6010E9476229B01F7
:10334000AC01C501B4010E94FE1D4B015C016093FC
:10335000E9067093EA068093EB069093EC06E98108
:10336000FA81BF01FF0F880B990B0E94901F9B01F0
:10337000AC016BA17CA18DA19EA10E94FD1DA701A6
:1033800096010E94BB216B017C01B801110F880BD3
:10339000990B0E94901F9B01AC016F8D78A189A1B0
:1033A0009AA10E94FD1D9B01AC0187017601C3011A
:1033B000B2010E94E21FA50194010E94E61E6BA7C4
:1033C0007CA78DA79EA7C501B4010E943622362F87
:1033D000272F462F572FBC014093E5065093E60652
:1033E0006093E7067093E806632F722F9B01AC0190
:1033F00060913A0270913B0280913C0290913D02B3
:103400000E94E61E6B017C016093CD067093CE0690
:103410008093CF069093D006ED81FE8184819581C3
:10342000A681B7818093E1069093E206A093E3061C
:10343000B093E406BC0162197309072E000C880BD7
:10344000990B0E94901F2B013C016093D906709349
:10345000DA068093DB069093DC066091E3067091B8
:10346000E40629853A85621B730B072E000C880B36
:10347000990B0E94901F4B015C016093DD067093D5
:10348000DE068093DF069093E006C301B2010E943E
:1034900076222B013C01C501B4010E9476229B01DA
:1034A000AC01C301B2010E94FE1D6093D50670936A
:1034B000D6068093D7069093D8060E943622609352
:1034C000D1067093D2068093D3069093D40649A573
:1034D0005AA550933802409337025091F6065FA3E5
:1034E000852F90E0988F8F8BA9A5BAA5B8ABAFA711
:1034F0008F89988D0297EFA5F8A98E179F0709F07D
:103500008ACD81E08093FB062BA53CA54DA55EA549
:1035100060E070E080E89FE30E94FD1D9B01AC012C
:103520006091E5067091E6068091E7069091E806C5
:103530000E94BB216093FC067093FD068093FE06FB
:103540009093FF0668CD80859185A285B385809391
:10355000E1069093E206A093E306B093E40684812B
:103560009581A681B7818093050790930607A09364
:103570000707B093080780819181A281B38180936E
:10358000010790930207A0930307B09304074091AB
:10359000050750910607588B4F87082F192FBA013E
:1035A000601B710B072E000C880B990B0E94901F5B
:1035B0006D837E838F8398876093ED067093EE060C
:1035C0008093EF069093F00680900707909008078D
:1035D000A0900307B0900407B4016A197B09072E75
:1035E000000C880B990B0E94901F69837A838B8350
:1035F0009C836093F1067093F2068093F306909398
:10360000F4066D817E818F8198850E9476226B0100
:103610007C0169817A818B819C810E947622A7013D
:1036200096010E94FE1D2B013C016093E9067093F8
:10363000EA068093EB069093EC0610923802109203
:10364000370288E090E098A78FA322242394312C9E
:1036500018AA1FA63ACC9F012C5F3F4F3E832D83B3
:103660008091D5069091D606A091D706B091D80644
:103670008093E9069093EA06A093EB06B093EC06DC
:1036800088E0E9EDF6E0ADEEB6E001900D928A95A6
:10369000E1F78091050790910607A0910707B09187
:1036A00008078093010790930207A0930307B09344
:1036B00004078091E1069091E206A091E306B091A3
:1036C000E406582F492F8093050790930607A0938F
:1036D0000707B09308076091D1067091D2068091D8
:1036E000D3069091D4068B019C010093E5061093BC
:1036F000E6062093E7063093E806252E342E409107
:103700000707509108075A8749872EA93FA948AD56
:1037100059AD2BA73CA74DA75EA768CEAFA5B8A90A
:10372000BAA7A9A70ECA830172014EA85FA868AC08
:1037300079AC77FA709477F87094A30192016F8551
:10374000788989899A890E94E21F0E94762269837A
:103750007A838B839C8385017401A30192016B8919
:103760007C898D899E890E94E21F0E9476229B019E
:10377000AC0169817A818B819C810E94FE1D6983E5
:103780007D83182F092F9B01482F592F6AA97BA9E8
:103790008CA99DA90E94072118160CF47FC020E077
:1037A00030E040E85FE36BA57CA58DA59EA50E9457
:1037B000072118160CF07BC03AA629A639813AAB2E
:1037C0004D814BAB1CAB0DABBCC9C701B6010E9410
:1037D000E61E4B015C016091050770910607072EFC
:1037E000000C880B990B0E94901F7B018C0160914B
:1037F000D9067091DA068091DB069091DC06A5016E
:1038000094010E94E21F2B013C0160910707709117
:103810000807072E000C880B990B0E94901F7B0154
:103820008C016091DD067091DE068091DF0690913B
:10383000E006A50194010E94E21F40920907509200
:103840000A0760920B0770920C0760930D07709344
:103850000E0780930F079093100773CA86E991E0D3
:103860009F938F931F920E944812B091F606BFA3B8
:10387000EB2FF0E0F88FEF8B209137023091380278
:1038800038AB2FA7C090CD06D090CE06E090CF06E3
:10389000F090D0060F900F900F90B4CB3AA629A6C7
:1038A000F981FAAB2D812BAB1CAB0DAB4AC92FA50F
:1038B00038A92F3F3F4F09F448C08FA598A99AA770
:1038C00089A73FC96091010770910207072E000C7C
:1038D000880B990B0E94901F7B018C016091ED0673
:1038E0007091EE068091EF069091F006A50194018B
:1038F0000E94E21F2B013C016091030770910407B5
:10390000072E000C880B990B0E94901F7B018C01E5
:103910006091F1067091F2068091F3069091F406A1
:10392000A50194010E94E21F4092090750920A07E4
:1039300060920B0770920C0760930D0770930E074F
:1039400080930F0790931007FCC93AA629A65981C6
:103950005AAB8D818BAB1CAB0DABF3C880E097E00D
:1039600008954130B1F04230F1F0433099F04423F2
:1039700019F080E090E00895282F862F90E0880FBE
:10398000991F880F991F880F991FC896820F911D44
:1039900008956F5F70E09B0148E0849F200D311D0A
:1039A0001124C901089521E0280FE7CF1F93CF9379
:1039B000DF93873028F080E0DF91CF911F91089549
:1039C0006730C8F7162FD82F43E00E94B11C8F3FF5
:1039D0002FEF920781F3FC01F695E795F695E795B1
:1039E000F695E795EF5EF84F228130E0AC01477025
:1039F000552702C0359527954A95E2F7C0E020FB90
:103A0000C3F90196FC01F695E795F695E795F695CD
:103A1000E795EF5EF84F228130E08770992702C06A
:103A2000359527958A95E2F720FBC1F940E0612F93
:103A30008D2F0E94B11CFC01F695E795F695E79550
:103A4000F695E795EF5EF84F228130E0AC014770C4
:103A5000552702C0359527954A95E2F720FBC0F916
:103A60000196FC01F695E795F695E795F695E795AD
:103A7000EF5EF84F228130E087709927A90102C0DC
:103A8000559547958A95E2F740FBC2F98C2FDF9157
:103A9000CF911F9108951F93CF93DF93873008F044
:103AA00074C0673008F071C0C42F162FD82F43E0C0
:103AB0000E94B11C8F3F2FEF920709F466C0FC01F2
:103AC000F695E795F695E795F695E795EF5EF84F4D
:103AD000AC014770552721E030E001C0220F4A9524
:103AE000EAF7C3FD56C02095328123232283019635
:103AF000FC01F695E795F695E795F695E795EF5E67
:103B0000F84FC1FD60C09C012770332781E090E031
:103B100001C0880F2A95EAF78095928189238283D4
:103B200040E0612F8D2F0E94B11CC0FD36C0FC010A
:103B3000F695E795F695E795F695E795EF5EF84FDC
:103B4000AC014770552721E030E001C0220F4A95B3
:103B5000EAF720953281232322830196FC01F69512
:103B6000E795F695E795F695E795EF5EF84F9C019A
:103B70002770332781E090E001C0880F2A95EAF78B
:103B8000C2FF30C09281892B8283DF91CF911F9138
:103B900008953281232B2283AACFFC01F695E79565
:103BA000F695E795F695E795EF5EF84FAC0147700F
:103BB000552721E030E001C0220F4A95EAF7328113
:103BC000232B2283CACF8770992721E030E0A901F7
:103BD00002C0440F551F8A95E2F7CA019281892BD2
:103BE00082839ECF8095928189238283DF91CF91BA
:103BF0001F91089581E197E008955058BB27AA27A7
:103C00000E94151E0C94A1200E94682038F00E948A
:103C10006F2020F039F49F3F19F426F40C943E20D5
:103C20000EF4E095E7FB0C940F20E92F0E94C620CC
:103C300058F3BA17620773078407950720F079F4E1
:103C4000A6F50C9400210EF4E0950B2EBA2FA02DB2
:103C50000B01B90190010C01CA01A0011124FF2739
:103C6000591B99F0593F50F4503E68F11A16F04034
:103C7000A22F232F342F4427585FF3CF4695379533
:103C80002795A795F0405395C9F77EF41F16BA0BF8
:103C9000620B730B840BBAF09150A1F0FF0FBB1FA6
:103CA000661F771F881FC2F70EC0BA0F621F731FEF
:103CB000841F48F4879577956795B795F7959E3F4C
:103CC00008F0B0CF9395880F08F09927EE0F9795DD
:103CD000879508950E94682060F080E891E009F4DB
:103CE0009EEF0E946F2028F040E851E071F45EEFF3
:103CF0000CC00C943E200C940021E92FE0780E9427
:103D0000C62040F3092E052AB1F3261737074807C6
:103D1000590738F00E2E07F8E02569F0E025E06439
:103D20000AC0EF6307F8009407FADB01B9019D01AF
:103D3000DC01CA01AD01EF930E94FD1E0E94A1208B
:103D40000E94AD1E5F91552339F02BED3FE049E411
:103D500050FD49EC0C94FE1D0895DF93DD27B92F2B
:103D6000BF7740E85FE31616170648075B0718F4AD
:103D7000D92F0E9479219F938F937F936F930E94F5
:103D80007622E2E0F1E00E9441200E94A1202F91E2
:103D90003F914F915F910E94CE21DD2351F09058C9
:103DA000A2EA2AED3FE049EC5FE3D0785D270E946C
:103DB000151EDF910C94A1200E94EB1F08F481E0F6
:103DC00008950E947820E3950C94B2200E94FA1E78
:103DD0000C94A1200E946F2058F00E94682040F0AF
:103DE00029F45F3F29F00C940F2051110C9401210C
:103DF0000C943E200E94C62068F39923B1F355230A
:103E000091F3951B550BBB27AA27621773078407ED
:103E100038F09F5F5F4F220F331F441FAA1FA9F383
:103E200035D00E2E3AF0E0E832D091505040E69571
:103E3000001CCAF72BD0FE2F29D0660F771F881FD2
:103E4000BB1F261737074807AB07B0E809F0BB0BC5
:103E5000802DBF01FF2793585F4F3AF09E3F5105D9
:103E600078F00C940F200C9401215F3FE4F3983E0E
:103E7000D4F3869577956795B795F7959F5FC9F7C2
:103E8000880F911D9695879597F90895E1E0660F43
:103E9000771F881FBB1F621773078407BA0720F0BC
:103EA000621B730B840BBA0BEE1F88F7E095089525
:103EB0000E945F1F6894B1110C94012108950E9423
:103EC000CE2088F09F5798F0B92F9927B751B0F0BE
:103ED000E1F0660F771F881F991F1AF0BA95C9F78E
:103EE00014C0B13091F00E940021B1E008950C940B
:103EF0000021672F782F8827B85F39F0B93FCCF3BE
:103F0000869577956795B395D9F73EF4909580950A
:103F1000709561957F4F8F4F9F4F0895E89409C02A
:103F200097FB3EF490958095709561957F4F8F4FEC
:103F30009F4F9923A9F0F92F96E9BB279395F69502
:103F4000879577956795B795F111F8CFFAF4BB0F80
:103F500011F460FF1BC06F5F7F4F8F4F9F4F16C0E4
:103F6000882311F096E911C0772321F09EE8872F6E
:103F7000762F05C0662371F096E8862F70E060E02A
:103F80002AF09A95660F771F881FDAF7880F9695A3
:103F9000879597F908950E94E82090F09F3748F49C
:103FA000911116F00C94012160E070E080E89FEB25
:103FB000089526F41B16611D711D811D0C9415209A
:103FC0000C9430200E94CE219701A801AA270E94BC
:103FD000151E0C94A120990F0008550FAA0BE0E8BC
:103FE000FEEF16161706E807F907C0F012161306BB
:103FF000E407F50798F0621B730B840B950B39F4FB
:104000000A2661F0232B242B252B21F408950A2660
:1040100009F4A140A6958FEF811D811D089597F9A0
:104020009F6780E870E060E00895882371F477234B
:1040300021F09850872B762F07C0662311F499271B
:104040000DC09051862B70E060E02AF09A95660FC3
:10405000771F881FDAF7880F9695879597F9089547
:104060009F3F31F0915020F4879577956795B795EC
:10407000880F911D9695879597F908959FEF80EC8D
:104080000895DF93CF931F930F93FF92EF92DF92E8
:104090007B018C01689406C0DA2EEF010E94CE21CC
:1040A000FE01E894A5912591359145915591A6F38E
:1040B000EF010E94151EFE019701A801DA9469F72D
:1040C000DF90EF90FF900F911F91CF91DF910895B6
:1040D00000240A94161617061806090608950024E7
:1040E0000A94121613061406050608950C943E2031
:1040F0000E94CE20D8F3E894E0E0BB279F57F0F071
:104100002AED3FE049EC06C0EE0FBB0F661F771F9C
:10411000881F28F0B23A62077307840728F0B25A62
:10412000620B730B840BE3959A9572F7803830F429
:104130009A95BB0F661F771F881FD2F790480C9483
:104140003220092E0394000C11F4882352F0BB0F87
:1041500040F4BF2B11F460FF04C06F5F7F4F8F4F9F
:104160009F4F0895EF93E0FF07C0A2EA2AED3FE0DA
:1041700049EC5FEB0E94151E0E94A1200F90039452
:1041800001FC9058EFE2F1E00C94812257FD905829
:10419000440F551F59F05F3F71F04795880F97FB0B
:1041A000991F61F09F3F79F08795089512161306C5
:1041B0001406551FF2CF4695F1DF08C016161706F4
:1041C0001806991FF1CF8695710561050894089529
:1041D0000E94CE20A0F0BEE7B91788F4BB279F3815
:1041E00060F41616B11D672F782F8827985FF7CFD8
:1041F000869577956795B11D93959639C8F308957F
:10420000E894BB2766277727CB0197F908950E948A
:10421000EB1F08F48FEF08950E94682029F00E9498
:104220006F2011F00C943E200C940F20B901CA01AC
:104230000C9430209F775F770E94C62068F3992303
:10424000A9F35523A9F3FF27951758F4E52FE91B88
:10425000ED3060F75E3B10F0F1E41CC09034E0F408
:104260000AC0E92FE51BED3018F79E3B10F0F1E492
:1042700011C0503488F4F9EA88232AF09A95660F21
:10428000771F881FDAF744232AF05A95220F331F2D
:10429000441FDAF79F1B5F1BFF931F930F93FF923F
:1042A000EF9279018A01BB27AB2F9B01AC010E94E1
:1042B000D1219701A801BF937B018C01AA27BA2FB6
:1042C000B901CA010E94D121AF919701A801EF90D5
:1042D000FF900F911F910E94151E0E94A1200E9425
:1042E00036224F9140FF0895552747FD50950C9475
:1042F00085219B01AC0160E070E080E89FE30C94B5
:10430000E61E0C940F200C9430200E94CE20D8F38F
:104310009923C9F3940F511DA3F39150504094F089
:1043200059F0882332F0660F771F881F9150504054
:10433000C1F79E3F51052CF7880F911D96958795E3
:1043400097F908955F3FACF0983E9CF0BB278695A7
:1043500077956795B79508F4B1609395C1F7BB0F52
:1043600058F711F460FFE8CF6F5F7F4F8F4F9F4F7B
:10437000E3CF0C9401210E94CE210C94A1200E9435
:10438000682038F00E946F2020F0952311F00C94E3
:104390000F200C943E2011240C9401210E94C62071
:1043A00070F3959FC1F3950F50E0551F629FF00188
:1043B000729FBB27F00DB11D639FAA27F00DB11DA1
:1043C000AA1F649F6627B00DA11D661F829F22272A
:1043D000B00DA11D621F739FB00DA11D621F839FB1
:1043E000A00D611D221F749F3327A00D611D231F87
:1043F000849F600D211D822F762F6A2F11249F57D5
:1044000050409AF0F1F088234AF0EE0FFF1FBB1FD7
:10441000661F771F881F91505040A9F79E3F510596
:1044200080F00C940F200C9401215F3FE4F3983E40
:10443000D4F3869577956795B795F795E7959F5F40
:10444000C1F7FE2B880F911D9695879597F90895D2
:104450009F930E9478200F9007FCEE5F0C94B2208F
:1044600019F416F40C943E200C9430200E94CE20B7
:10447000B8F39923C9F3B6F39F57550B87FF0E94F2
:104480007A220024A0E640EA90018058569597953C
:1044900028F4805C660F771F881F20F026173707E7
:1044A000480730F4621B730B840B202931294A2BF7
:1044B000A69517940794202531254A2758F7660FAB
:1044C000771F881F20F026173707480730F4620B44
:1044D000730B840B200D311D411DA09581F7B9018F
:1044E000842F9158880F9695879508959B01AC016C
:1044F0000C94BB2191505040660F771F881FD2F754
:1045000008959F938F937F936F93FF93EF939B01F6
:10451000AC010E94BB21EF91FF910E9441202F919D
:104520003F914F915F910C94BB21EE0FFF1F002430
:10453000001C0BBE0790F691E02D09940E94A92261
:10454000A59F900DB49F900DA49F800D911D1124E7
:104550000895A29FB001B39FC001A39F700D811D5C
:104560001124911DB29F700D811D1124911D08957C
:104570000F931F93CF93DF938230910510F482E065
:1045800090E0E091E309F091E40920E030E0A0E060
:10459000B0E0309719F140815181028113814817B1
:1045A0005907C8F08417950769F4109731F01296EF
:1045B0000C93129713961C9327C00093E309109352
:1045C000E40922C02115310519F04217530718F4E8
:1045D0009A01BD01EF01DF01F801DBCF21153105A3
:1045E000F9F0281B390B2430310580F48A819B8136
:1045F0006115710521F0FB019383828304C09093C0
:10460000E4098093E309FE01329644C0FE01E20F03
:10461000F31F8193919322503109398328833AC043
:104620002091E1093091E209232B41F4209102020B
:10463000309103023093E2092093E10920910002B6
:10464000309101022115310541F42DB73EB740915B
:10465000040250910502241B350BE091E109F09111
:10466000E209E217F307A0F42E1B3F0B28173907C6
:1046700078F0AC014E5F5F4F2417350748F04E0FBE
:104680005F1F5093E2094093E1098193919302C027
:10469000E0E0F0E0CF01DF91CF911F910F910895FD
:1046A000CF93DF93009709F481C0FC013297138206
:1046B0001282A091E309B091E409109781F420815E
:1046C0003181820F931F2091E1093091E20928176F
:1046D000390751F5F093E209E093E10967C0ED0174
:1046E00020E030E0CE17DF0740F44A815B819E0175
:1046F00041155105F1F0EA01F5CFD383C283408122
:104700005181840F951FC817D90759F48881998161
:10471000840F951F0296918380838A819B81938366
:1047200082832115310529F4F093E409E093E3092C
:104730003DC0E901FB83EA8349915991C40FD51F1C
:10474000EC17FD0761F480819181840F951F02961B
:10475000E90199838883828193819B838A83E0E046
:10476000F0E012968D919C911397009719F0FD013E
:10477000DC01F7CF8D919C9111979D012E5F3F4FEA
:10478000820F931F2091E1093091E2092817390720
:1047900069F4309729F41092E4091092E30902C0F9
:1047A00013821282B093E209A093E109DF91CF91C5
:1047B0000895FB01DC0102C001900D924150504070
:1047C000D8F708950F931F93CF93DF93CDB7DEB73C
:1047D0002E970FB6F894DEBF0FBECDBF8C01FA0145
:1047E00086E08C831A83098377FF02C060E070E85B
:1047F000CB0101979E838D83A901BF01CE01019654
:104800000E9454244D815E8157FD0AC02F81388556
:10481000421753070CF49A01F801E20FF31F1082BC
:104820002E960FB6F894DEBF0FBECDBFDF91CF91AD
:104830001F910F9108950F931F93CF93DF93CDB7DF
:10484000DEB72E970FB6F894DEBF0FBECDBF8C013A
:10485000FA018EE08C831A83098377FF02C060E03F
:1048600070E8CB0101979E838D83A901BF01CE0122
:1048700001960E9454244D815E8157FD0AC02F810C
:104880003885421753070CF49A01F801E20FF31F21
:1048900010822E960FB6F894DEBF0FBECDBFDF910B
:1048A000CF911F910F9108952F923F924F925F9257
:1048B0006F927F928F929F92AF92BF92CF92DF9230
:1048C000EF92FF920F931F93CF93DF93CDB7DEB795
:1048D0002B970FB6F894DEBF0FBECDBF6C017B01E6
:1048E0008A01FC0117821682838181FFCCC1CE012F
:1048F00001963C01F6019381F70193FD859193FFA9
:1049000081917F01882309F4BAC1853239F493FD7E
:10491000859193FF81917F01853229F4B60190E062
:104920000E947426E7CF912C212C312CFFE1F31546
:10493000D8F08B3279F038F4803279F08332A1F4F8
:10494000232D20611DC08D3261F0803369F4232D49
:10495000216016C0832D8260382EE32DE4603E2E48
:104960002AC0F32DF8601DC037FC2DC020ED280FA4
:104970002A3040F08E32B9F436FC81C1232D2064F8
:10498000322E19C036FE06C08AE0989E200D1124F2
:10499000922E11C0EAE02E9E200D1124222EF32D1E
:1049A000F0623F2E08C08C3621F4832D8068382EAB
:1049B00002C0883641F4F70193FD859193FF819100
:1049C0007F018111B3CF982F9F7D9554933028F4A8
:1049D0000C5F1F4F9FE399830DC0833631F08337FF
:1049E00071F0833509F059C021C0F80180818983B5
:1049F0000E5F1F4F88248394912C530113C028010C
:104A0000F2E04F0E511CF801A080B18036FE03C0C9
:104A1000692D70E002C06FEF7FEFC5010E9469262B
:104A20004C018201F32DFF773F2E16C0280122E0B2
:104A3000420E511CF801A080B18036FE03C0692DE2
:104A400070E002C06FEF7FEFC5010E945E264C014F
:104A5000F32DF0683F2E820133FC1BC0822D90E0C5
:104A600088169906B0F4B60180E290E00E947426A0
:104A70002A94F4CFF50137FC859137FE81915F01CF
:104A8000B60190E00E94742621102A9421E0821A37
:104A900091088114910471F7E8C0843611F08936C9
:104AA00041F5F80137FE07C06081718182819381F1
:104AB0000C5F1F4F08C060817181072E000C880BAE
:104AC000990B0E5F1F4FF32DFF763F2E97FF09C006
:104AD00090958095709561957F4F8F4F9F4FF068AF
:104AE0003F2E2AE030E0A3010E94B026882E8618CF
:104AF00045C0853731F4232D2F7EB22E2AE030E0D9
:104B000025C0932D997FB92E8F36C1F018F48835C2
:104B100079F0B5C0803719F0883721F0B0C0E92F9F
:104B2000E061BE2EB4FE0DC0FB2DF460BF2E09C0A7
:104B300034FE0AC0292F2660B22E06C028E030E0DD
:104B400005C020E130E002C020E132E0F801B7FE0C
:104B500007C060817181828193810C5F1F4F06C005
:104B60006081718180E090E00E5F1F4FA3010E9481
:104B7000B026882E8618FB2DFF773F2E36FE0DC0FF
:104B8000232D2E7FA22E891458F434FE0BC032FC44
:104B900009C0832D8E7EA82E05C0B82CA32C03C07F
:104BA000B82C01C0B92CA4FE0FC0FE01E80DF11D08
:104BB0008081803321F49A2D997EA92E09C0A2FE0E
:104BC00006C0B394B39404C08A2D867809F0B394D8
:104BD000A3FC11C0A0FE06C0B21488F4280C922CCD
:104BE0009B180EC0B21460F4B60180E290E00E94FF
:104BF0007426B394F7CFB21418F42B1802C0982C73
:104C0000212CA4FE10C0B60180E390E00E9474261F
:104C1000A2FE17C0A1FC03C088E790E002C088E5AF
:104C200090E0B6010CC08A2D867859F0A1FE02C032
:104C30008BE201C080E2A7FC8DE2B60190E00E9409
:104C40007426891438F4B60180E390E00E9474263B
:104C50009A94F7CF8A94F301E80DF11D8081B60193
:104C600090E00E9474268110F5CF222009F442CEF4
:104C7000B60180E290E00E9474262A94F6CFF601F5
:104C80008681978102C08FEF9FEF2B960FB6F89425
:104C9000DEBF0FBECDBFDF91CF911F910F91FF906F
:104CA000EF90DF90CF90BF90AF909F908F907F90CC
:104CB0006F905F904F903F902F900895FC0105906A
:104CC000615070400110D8F7809590958E0F9F1F0E
:104CD0000895FC016150704001900110D8F7809553
:104CE00090958E0F9F1F08950F931F93CF93DF937F
:104CF000FB01238121FD03C08FEF9FEF2CC022FF1A
:104D000016C046815781248135814217530744F4E8
:104D1000A081B1819D012F5F3F4F318320838C9310
:104D2000268137812F5F3F4F3783268314C08B0145
:104D3000EC01FB010084F185E02D0995892BE1F65A
:104D4000D80116968D919C911797019617969C9372
:104D50008E931697CE01DF91CF911F910F910895F9
:104D6000FA01AA27283051F1203181F1E8946F939C
:104D70006E7F6E5F7F4F8F4F9F4FAF4FB1E03ED042
:104D8000B4E03CD0670F781F891F9A1FA11D680FE0
:104D9000791F8A1F911DA11D6A0F711D811D911D13
:104DA000A11D20D009F468943F912AE0269F112488
:104DB0003019305D3193DEF6CF010895462F4770EC
:104DC000405D4193B3E00FD0C9F7F6CF462F4F7047
:104DD000405D4A3318F0495D31FD4052419302D0A5
:104DE000A9F7EACFB4E0A69597958795779567954B
:104DF000BA95C9F700976105710508959B01AC014B
:104E00000A2E06945795479537952795BA95C9F771
:104E1000620F731F841F951FA01D0895F894FFCF84
:104E20000000E5092000F6FF00000000000000007F
:104E3000DB0FC93F0303000000000000000000DB9F
:104E40000FC93F000006431B7E223E000000000009
:104E50000000000000FFFFFFFF050000803F7265BB
:104E600063656976656420257520627974657300D1
:104E7000537769746368696E672066726F6D20731B
:104E800065676D656E7420256920746F2025690043
:00000001FF
